{
  "abi": [
    {
      "inputs": [
        {
          "internalType": "contract IVault",
          "name": "vault",
          "type": "address"
        },
        {
          "internalType": "string",
          "name": "name",
          "type": "string"
        },
        {
          "internalType": "string",
          "name": "symbol",
          "type": "string"
        },
        {
          "internalType": "contract IERC20[]",
          "name": "tokens",
          "type": "address[]"
        },
        {
          "internalType": "uint256[]",
          "name": "normalizedWeights",
          "type": "uint256[]"
        },
        {
          "internalType": "uint256",
          "name": "swapFeePercentage",
          "type": "uint256"
        },
        {
          "internalType": "uint256",
          "name": "pauseWindowDuration",
          "type": "uint256"
        },
        {
          "internalType": "uint256",
          "name": "bufferPeriodDuration",
          "type": "uint256"
        },
        {
          "internalType": "address",
          "name": "owner",
          "type": "address"
        }
      ],
      "stateMutability": "nonpayable",
      "type": "constructor"
    },
    {
      "anonymous": false,
      "inputs": [
        {
          "indexed": true,
          "internalType": "address",
          "name": "owner",
          "type": "address"
        },
        {
          "indexed": true,
          "internalType": "address",
          "name": "spender",
          "type": "address"
        },
        {
          "indexed": false,
          "internalType": "uint256",
          "name": "value",
          "type": "uint256"
        }
      ],
      "name": "Approval",
      "type": "event"
    },
    {
      "anonymous": false,
      "inputs": [
        {
          "indexed": false,
          "internalType": "bool",
          "name": "paused",
          "type": "bool"
        }
      ],
      "name": "PausedStateChanged",
      "type": "event"
    },
    {
      "anonymous": false,
      "inputs": [
        {
          "indexed": false,
          "internalType": "uint256",
          "name": "swapFeePercentage",
          "type": "uint256"
        }
      ],
      "name": "SwapFeePercentageChanged",
      "type": "event"
    },
    {
      "anonymous": false,
      "inputs": [
        {
          "indexed": true,
          "internalType": "address",
          "name": "from",
          "type": "address"
        },
        {
          "indexed": true,
          "internalType": "address",
          "name": "to",
          "type": "address"
        },
        {
          "indexed": false,
          "internalType": "uint256",
          "name": "value",
          "type": "uint256"
        }
      ],
      "name": "Transfer",
      "type": "event"
    },
    {
      "inputs": [],
      "name": "DOMAIN_SEPARATOR",
      "outputs": [
        {
          "internalType": "bytes32",
          "name": "",
          "type": "bytes32"
        }
      ],
      "stateMutability": "view",
      "type": "function"
    },
    {
      "inputs": [
        {
          "internalType": "address",
          "name": "owner",
          "type": "address"
        },
        {
          "internalType": "address",
          "name": "spender",
          "type": "address"
        }
      ],
      "name": "allowance",
      "outputs": [
        {
          "internalType": "uint256",
          "name": "",
          "type": "uint256"
        }
      ],
      "stateMutability": "view",
      "type": "function"
    },
    {
      "inputs": [
        {
          "internalType": "address",
          "name": "spender",
          "type": "address"
        },
        {
          "internalType": "uint256",
          "name": "amount",
          "type": "uint256"
        }
      ],
      "name": "approve",
      "outputs": [
        {
          "internalType": "bool",
          "name": "",
          "type": "bool"
        }
      ],
      "stateMutability": "nonpayable",
      "type": "function"
    },
    {
      "inputs": [
        {
          "internalType": "address",
          "name": "account",
          "type": "address"
        }
      ],
      "name": "balanceOf",
      "outputs": [
        {
          "internalType": "uint256",
          "name": "",
          "type": "uint256"
        }
      ],
      "stateMutability": "view",
      "type": "function"
    },
    {
      "inputs": [],
      "name": "decimals",
      "outputs": [
        {
          "internalType": "uint8",
          "name": "",
          "type": "uint8"
        }
      ],
      "stateMutability": "pure",
      "type": "function"
    },
    {
      "inputs": [
        {
          "internalType": "address",
          "name": "spender",
          "type": "address"
        },
        {
          "internalType": "uint256",
          "name": "amount",
          "type": "uint256"
        }
      ],
      "name": "decreaseApproval",
      "outputs": [
        {
          "internalType": "bool",
          "name": "",
          "type": "bool"
        }
      ],
      "stateMutability": "nonpayable",
      "type": "function"
    },
    {
      "inputs": [
        {
          "internalType": "bytes4",
          "name": "selector",
          "type": "bytes4"
        }
      ],
      "name": "getActionId",
      "outputs": [
        {
          "internalType": "bytes32",
          "name": "",
          "type": "bytes32"
        }
      ],
      "stateMutability": "view",
      "type": "function"
    },
    {
      "inputs": [],
      "name": "getAuthorizer",
      "outputs": [
        {
          "internalType": "contract IAuthorizer",
          "name": "",
          "type": "address"
        }
      ],
      "stateMutability": "view",
      "type": "function"
    },
    {
      "inputs": [],
      "name": "getInvariant",
      "outputs": [
        {
          "internalType": "uint256",
          "name": "",
          "type": "uint256"
        }
      ],
      "stateMutability": "view",
      "type": "function"
    },
    {
      "inputs": [],
      "name": "getLastInvariant",
      "outputs": [
        {
          "internalType": "uint256",
          "name": "",
          "type": "uint256"
        }
      ],
      "stateMutability": "view",
      "type": "function"
    },
    {
      "inputs": [],
      "name": "getNormalizedWeights",
      "outputs": [
        {
          "internalType": "uint256[]",
          "name": "",
          "type": "uint256[]"
        }
      ],
      "stateMutability": "view",
      "type": "function"
    },
    {
      "inputs": [],
      "name": "getOwner",
      "outputs": [
        {
          "internalType": "address",
          "name": "",
          "type": "address"
        }
      ],
      "stateMutability": "view",
      "type": "function"
    },
    {
      "inputs": [],
      "name": "getPausedState",
      "outputs": [
        {
          "internalType": "bool",
          "name": "paused",
          "type": "bool"
        },
        {
          "internalType": "uint256",
          "name": "pauseWindowEndTime",
          "type": "uint256"
        },
        {
          "internalType": "uint256",
          "name": "bufferPeriodEndTime",
          "type": "uint256"
        }
      ],
      "stateMutability": "view",
      "type": "function"
    },
    {
      "inputs": [],
      "name": "getPoolId",
      "outputs": [
        {
          "internalType": "bytes32",
          "name": "",
          "type": "bytes32"
        }
      ],
      "stateMutability": "view",
      "type": "function"
    },
    {
      "inputs": [],
      "name": "getRate",
      "outputs": [
        {
          "internalType": "uint256",
          "name": "",
          "type": "uint256"
        }
      ],
      "stateMutability": "view",
      "type": "function"
    },
    {
      "inputs": [],
      "name": "getSwapFeePercentage",
      "outputs": [
        {
          "internalType": "uint256",
          "name": "",
          "type": "uint256"
        }
      ],
      "stateMutability": "view",
      "type": "function"
    },
    {
      "inputs": [],
      "name": "getVault",
      "outputs": [
        {
          "internalType": "contract IVault",
          "name": "",
          "type": "address"
        }
      ],
      "stateMutability": "view",
      "type": "function"
    },
    {
      "inputs": [
        {
          "internalType": "address",
          "name": "spender",
          "type": "address"
        },
        {
          "internalType": "uint256",
          "name": "amount",
          "type": "uint256"
        }
      ],
      "name": "increaseApproval",
      "outputs": [
        {
          "internalType": "bool",
          "name": "",
          "type": "bool"
        }
      ],
      "stateMutability": "nonpayable",
      "type": "function"
    },
    {
      "inputs": [],
      "name": "name",
      "outputs": [
        {
          "internalType": "string",
          "name": "",
          "type": "string"
        }
      ],
      "stateMutability": "view",
      "type": "function"
    },
    {
      "inputs": [
        {
          "internalType": "address",
          "name": "owner",
          "type": "address"
        }
      ],
      "name": "nonces",
      "outputs": [
        {
          "internalType": "uint256",
          "name": "",
          "type": "uint256"
        }
      ],
      "stateMutability": "view",
      "type": "function"
    },
    {
      "inputs": [
        {
          "internalType": "bytes32",
          "name": "poolId",
          "type": "bytes32"
        },
        {
          "internalType": "address",
          "name": "sender",
          "type": "address"
        },
        {
          "internalType": "address",
          "name": "recipient",
          "type": "address"
        },
        {
          "internalType": "uint256[]",
          "name": "balances",
          "type": "uint256[]"
        },
        {
          "internalType": "uint256",
          "name": "lastChangeBlock",
          "type": "uint256"
        },
        {
          "internalType": "uint256",
          "name": "protocolSwapFeePercentage",
          "type": "uint256"
        },
        {
          "internalType": "bytes",
          "name": "userData",
          "type": "bytes"
        }
      ],
      "name": "onExitPool",
      "outputs": [
        {
          "internalType": "uint256[]",
          "name": "",
          "type": "uint256[]"
        },
        {
          "internalType": "uint256[]",
          "name": "",
          "type": "uint256[]"
        }
      ],
      "stateMutability": "nonpayable",
      "type": "function"
    },
    {
      "inputs": [
        {
          "internalType": "bytes32",
          "name": "poolId",
          "type": "bytes32"
        },
        {
          "internalType": "address",
          "name": "sender",
          "type": "address"
        },
        {
          "internalType": "address",
          "name": "recipient",
          "type": "address"
        },
        {
          "internalType": "uint256[]",
          "name": "balances",
          "type": "uint256[]"
        },
        {
          "internalType": "uint256",
          "name": "lastChangeBlock",
          "type": "uint256"
        },
        {
          "internalType": "uint256",
          "name": "protocolSwapFeePercentage",
          "type": "uint256"
        },
        {
          "internalType": "bytes",
          "name": "userData",
          "type": "bytes"
        }
      ],
      "name": "onJoinPool",
      "outputs": [
        {
          "internalType": "uint256[]",
          "name": "",
          "type": "uint256[]"
        },
        {
          "internalType": "uint256[]",
          "name": "",
          "type": "uint256[]"
        }
      ],
      "stateMutability": "nonpayable",
      "type": "function"
    },
    {
      "inputs": [
        {
          "components": [
            {
              "internalType": "enum IVault.SwapKind",
              "name": "kind",
              "type": "uint8"
            },
            {
              "internalType": "contract IERC20",
              "name": "tokenIn",
              "type": "address"
            },
            {
              "internalType": "contract IERC20",
              "name": "tokenOut",
              "type": "address"
            },
            {
              "internalType": "uint256",
              "name": "amount",
              "type": "uint256"
            },
            {
              "internalType": "bytes32",
              "name": "poolId",
              "type": "bytes32"
            },
            {
              "internalType": "uint256",
              "name": "lastChangeBlock",
              "type": "uint256"
            },
            {
              "internalType": "address",
              "name": "from",
              "type": "address"
            },
            {
              "internalType": "address",
              "name": "to",
              "type": "address"
            },
            {
              "internalType": "bytes",
              "name": "userData",
              "type": "bytes"
            }
          ],
          "internalType": "struct IPoolSwapStructs.SwapRequest",
          "name": "request",
          "type": "tuple"
        },
        {
          "internalType": "uint256",
          "name": "balanceTokenIn",
          "type": "uint256"
        },
        {
          "internalType": "uint256",
          "name": "balanceTokenOut",
          "type": "uint256"
        }
      ],
      "name": "onSwap",
      "outputs": [
        {
          "internalType": "uint256",
          "name": "",
          "type": "uint256"
        }
      ],
      "stateMutability": "view",
      "type": "function"
    },
    {
      "inputs": [
        {
          "internalType": "address",
          "name": "owner",
          "type": "address"
        },
        {
          "internalType": "address",
          "name": "spender",
          "type": "address"
        },
        {
          "internalType": "uint256",
          "name": "value",
          "type": "uint256"
        },
        {
          "internalType": "uint256",
          "name": "deadline",
          "type": "uint256"
        },
        {
          "internalType": "uint8",
          "name": "v",
          "type": "uint8"
        },
        {
          "internalType": "bytes32",
          "name": "r",
          "type": "bytes32"
        },
        {
          "internalType": "bytes32",
          "name": "s",
          "type": "bytes32"
        }
      ],
      "name": "permit",
      "outputs": [],
      "stateMutability": "nonpayable",
      "type": "function"
    },
    {
      "inputs": [
        {
          "internalType": "bytes32",
          "name": "poolId",
          "type": "bytes32"
        },
        {
          "internalType": "address",
          "name": "sender",
          "type": "address"
        },
        {
          "internalType": "address",
          "name": "recipient",
          "type": "address"
        },
        {
          "internalType": "uint256[]",
          "name": "balances",
          "type": "uint256[]"
        },
        {
          "internalType": "uint256",
          "name": "lastChangeBlock",
          "type": "uint256"
        },
        {
          "internalType": "uint256",
          "name": "protocolSwapFeePercentage",
          "type": "uint256"
        },
        {
          "internalType": "bytes",
          "name": "userData",
          "type": "bytes"
        }
      ],
      "name": "queryExit",
      "outputs": [
        {
          "internalType": "uint256",
          "name": "bptIn",
          "type": "uint256"
        },
        {
          "internalType": "uint256[]",
          "name": "amountsOut",
          "type": "uint256[]"
        }
      ],
      "stateMutability": "nonpayable",
      "type": "function"
    },
    {
      "inputs": [
        {
          "internalType": "bytes32",
          "name": "poolId",
          "type": "bytes32"
        },
        {
          "internalType": "address",
          "name": "sender",
          "type": "address"
        },
        {
          "internalType": "address",
          "name": "recipient",
          "type": "address"
        },
        {
          "internalType": "uint256[]",
          "name": "balances",
          "type": "uint256[]"
        },
        {
          "internalType": "uint256",
          "name": "lastChangeBlock",
          "type": "uint256"
        },
        {
          "internalType": "uint256",
          "name": "protocolSwapFeePercentage",
          "type": "uint256"
        },
        {
          "internalType": "bytes",
          "name": "userData",
          "type": "bytes"
        }
      ],
      "name": "queryJoin",
      "outputs": [
        {
          "internalType": "uint256",
          "name": "bptOut",
          "type": "uint256"
        },
        {
          "internalType": "uint256[]",
          "name": "amountsIn",
          "type": "uint256[]"
        }
      ],
      "stateMutability": "nonpayable",
      "type": "function"
    },
    {
      "inputs": [
        {
          "internalType": "bool",
          "name": "paused",
          "type": "bool"
        }
      ],
      "name": "setPaused",
      "outputs": [],
      "stateMutability": "nonpayable",
      "type": "function"
    },
    {
      "inputs": [
        {
          "internalType": "uint256",
          "name": "swapFeePercentage",
          "type": "uint256"
        }
      ],
      "name": "setSwapFeePercentage",
      "outputs": [],
      "stateMutability": "nonpayable",
      "type": "function"
    },
    {
      "inputs": [],
      "name": "symbol",
      "outputs": [
        {
          "internalType": "string",
          "name": "",
          "type": "string"
        }
      ],
      "stateMutability": "view",
      "type": "function"
    },
    {
      "inputs": [],
      "name": "totalSupply",
      "outputs": [
        {
          "internalType": "uint256",
          "name": "",
          "type": "uint256"
        }
      ],
      "stateMutability": "view",
      "type": "function"
    },
    {
      "inputs": [
        {
          "internalType": "address",
          "name": "recipient",
          "type": "address"
        },
        {
          "internalType": "uint256",
          "name": "amount",
          "type": "uint256"
        }
      ],
      "name": "transfer",
      "outputs": [
        {
          "internalType": "bool",
          "name": "",
          "type": "bool"
        }
      ],
      "stateMutability": "nonpayable",
      "type": "function"
    },
    {
      "inputs": [
        {
          "internalType": "address",
          "name": "sender",
          "type": "address"
        },
        {
          "internalType": "address",
          "name": "recipient",
          "type": "address"
        },
        {
          "internalType": "uint256",
          "name": "amount",
          "type": "uint256"
        }
      ],
      "name": "transferFrom",
      "outputs": [
        {
          "internalType": "bool",
          "name": "",
          "type": "bool"
        }
      ],
      "stateMutability": "nonpayable",
      "type": "function"
    }
  ],
  "bytecode": {
    "object": "0x6105006040527f6e71edae12b1b97f4d1f60370fef10105fa2faae0126114a169c64845d6126c9610120523480156200003757600080fd5b5060405162005844380380620058448339810160408190526200005a9162000cf6565b88888888878787878785516002146200007557600162000078565b60025b6040805180820190915260018152603160f81b6020808301918252336080526001600160601b0319606087901b1660a0528b51908c0190812060c0529151902060e0527f8b73c3c69bb8fe3d512ecc4cf759cc79239f7b179b0ffacaa9a75d522b39400f6101005289518a918a918a918a918a918a918a91849184918a918a9162000107916003919062000abb565b5080516200011d90600490602084019062000abb565b50620001359150506276a70083111561019462000865565b6200014962278d0082111561019562000865565b42909101610140819052016101605284516200016b906002111560c862000865565b6200018360088651111560c96200086560201b60201c565b62000199856200087a60201b62000d821760201c565b620001a48462000886565b6040516309b2760f60e01b81526000906001600160a01b038b16906309b2760f90620001d5908c9060040162000eab565b602060405180830381600087803b158015620001f057600080fd5b505af115801562000205573d6000803e3d6000fd5b505050506040513d601f19601f820116820180604052508101906200022b919062000cdd565b9050896001600160a01b03166366a9c7d2828889516001600160401b03811180156200025657600080fd5b5060405190808252806020026020018201604052801562000281578160200160208202803683370190505b506040518463ffffffff1660e01b8152600401620002a29392919062000e11565b600060405180830381600087803b158015620002bd57600080fd5b505af1158015620002d2573d6000803e3d6000fd5b5050506001600160601b031960608c901b1661018052506101a081905285516101c0528551620003045760006200031b565b856000815181106200031257fe5b60200260200101515b60601b6001600160601b0319166101e05285516001106200033e57600062000355565b856001815181106200034c57fe5b60200260200101515b60601b6001600160601b031916610200528551600210620003785760006200038f565b856002815181106200038657fe5b60200260200101515b60601b6001600160601b031916610220528551600310620003b2576000620003c9565b85600381518110620003c057fe5b60200260200101515b60601b6001600160601b031916610240528551600410620003ec57600062000403565b85600481518110620003fa57fe5b60200260200101515b60601b6001600160601b031916610260528551600510620004265760006200043d565b856005815181106200043457fe5b60200260200101515b60601b6001600160601b0319166102805285516006106200046057600062000477565b856006815181106200046e57fe5b60200260200101515b60601b6001600160601b0319166102a05285516007106200049a576000620004b1565b85600781518110620004a857fe5b60200260200101515b60601b6001600160601b0319166102c0528551620004d1576000620004f7565b620004f786600081518110620004e357fe5b6020026020010151620008f560201b60201c565b6102e05285516001106200050d5760006200051f565b6200051f86600181518110620004e357fe5b6103005285516002106200053557600062000547565b6200054786600281518110620004e357fe5b6103205285516003106200055d5760006200056f565b6200056f86600381518110620004e357fe5b6103405285516004106200058557600062000597565b6200059786600481518110620004e357fe5b610360528551600510620005ad576000620005bf565b620005bf86600581518110620004e357fe5b610380528551600610620005d5576000620005e7565b620005e786600681518110620004e357fe5b6103a0528551600710620005fd5760006200060f565b6200060f86600781518110620004e357fe5b6103c08181525050505050505050505050505050505050505050600086519050620006478187516200099960201b62000d901760201c565b6000806000805b848160ff161015620006cd5760008a8260ff16815181106200066c57fe5b6020026020010151905062000694662386f26fc1000082101561012e6200086560201b60201c565b620006ae8186620009a860201b62000d9d1790919060201c565b945082811115620006c3578160ff1693508092505b506001016200064e565b50620006e6670de0b6b3a7640000841461013462000865565b6103e08290528851620006fb57600062000712565b886000815181106200070957fe5b60200260200101515b610400528851600110620007285760006200073f565b886001815181106200073657fe5b60200260200101515b610420528851600210620007555760006200076c565b886002815181106200076357fe5b60200260200101515b6104405288516003106200078257600062000799565b886003815181106200079057fe5b60200260200101515b610460528851600410620007af576000620007c6565b88600481518110620007bd57fe5b60200260200101515b610480528851600510620007dc576000620007f3565b88600581518110620007ea57fe5b60200260200101515b6104a05288516006106200080957600062000820565b886006815181106200081757fe5b60200260200101515b6104c0528851600710620008365760006200084d565b886007815181106200084457fe5b60200260200101515b6104e0525062000f219b505050505050505050505050565b8162000876576200087681620009c3565b5050565b80620008768162000a16565b6200089b64e8d4a5100082101560cb62000865565b620008b367016345785d8a000082111560ca62000865565b60078190556040517fa9ba3ffe0b6c366b81232caab38605a0699ad5398d6cce76f91ee809e322dafc90620008ea90839062000ec0565b60405180910390a150565b600080826001600160a01b031663313ce5676040518163ffffffff1660e01b815260040160206040518083038186803b1580156200093257600080fd5b505afa15801562000947573d6000803e3d6000fd5b505050506040513d601f19601f820116820180604052508101906200096d919062000dee565b60ff16905060006200098c60128362000aa360201b62000daf1760201c565b600a0a925050505b919050565b62000876828214606762000865565b6000828201620009bc848210158362000865565b9392505050565b62461bcd60e51b6000908152602060045260076024526642414c23000030600a808404818106603090810160081b95839006959095019082900491820690940160101b939093010160c81b604452606490fd5b60028151101562000a275762000aa0565b60008160008151811062000a3757fe5b602002602001015190506000600190505b825181101562000a9d57600083828151811062000a6157fe5b6020026020010151905062000a92816001600160a01b0316846001600160a01b03161060656200086560201b60201c565b915060010162000a48565b50505b50565b600062000ab583831115600162000865565b50900390565b828054600181600116156101000203166002900490600052602060002090601f01602090048101928262000af3576000855562000b3e565b82601f1062000b0e57805160ff191683800117855562000b3e565b8280016001018555821562000b3e579182015b8281111562000b3e57825182559160200191906001019062000b21565b5062000b4c92915062000b50565b5090565b5b8082111562000b4c576000815560010162000b51565b8051620009948162000f0b565b600082601f83011262000b85578081fd5b8151602062000b9e62000b988362000eed565b62000ec9565b828152818101908583018385028701840188101562000bbb578586fd5b855b8581101562000be657815162000bd38162000f0b565b8452928401929084019060010162000bbd565b5090979650505050505050565b600082601f83011262000c04578081fd5b8151602062000c1762000b988362000eed565b828152818101908583018385028701840188101562000c34578586fd5b855b8581101562000be65781518452928401929084019060010162000c36565b600082601f83011262000c65578081fd5b81516001600160401b0381111562000c7957fe5b602062000c8f601f8301601f1916820162000ec9565b828152858284870101111562000ca3578384fd5b835b8381101562000cc257858101830151828201840152820162000ca5565b8381111562000cd357848385840101525b5095945050505050565b60006020828403121562000cef578081fd5b5051919050565b60008060008060008060008060006101208a8c03121562000d15578485fd5b62000d208a62000b67565b60208b01519099506001600160401b038082111562000d3d578687fd5b62000d4b8d838e0162000c54565b995060408c015191508082111562000d61578687fd5b62000d6f8d838e0162000c54565b985060608c015191508082111562000d85578687fd5b62000d938d838e0162000b74565b975060808c015191508082111562000da9578687fd5b5062000db88c828d0162000bf3565b95505060a08a0151935060c08a0151925060e08a0151915062000ddf6101008b0162000b67565b90509295985092959850929598565b60006020828403121562000e00578081fd5b815160ff81168114620009bc578182fd5b60006060820185835260206060818501528186518084526080860191508288019350845b8181101562000e5c5784516001600160a01b03168352938301939183019160010162000e35565b505084810360408601528551808252908201925081860190845b8181101562000e9d5782516001600160a01b03168552938301939183019160010162000e76565b509298975050505050505050565b602081016003831062000eba57fe5b91905290565b90815260200190565b6040518181016001600160401b038111828210171562000ee557fe5b604052919050565b60006001600160401b0382111562000f0157fe5b5060209081020190565b6001600160a01b038116811462000aa057600080fd5b60805160a05160601c60c05160e051610100516101205161014051610160516101805160601c6101a0516101c0516101e05160601c6102005160601c6102205160601c6102405160601c6102605160601c6102805160601c6102a05160601c6102c05160601c6102e05161030051610320516103405161036051610380516103a0516103c0516103e05161040051610420516104405161046051610480516104a0516104c0516104e05161470d6200113760003980611f1252806128e1525080611ecf5280612880525080611e8c528061281f525080611e4952806127be525080611e06528061275d525080611dc352806126fc525080611d80528061269b525080611d3d528061263a52508061235a528061238e52806123ca52508061166f5280611b6c52508061162c5280611b0b5250806115e95280611aaa5250806115a65280611a4952508061156352806119e852508061152052806119875250806114dd528061192652508061148c52806118c5525080611b3152806128a6525080611ad05280612845525080611a6f52806127e4525080611a0e52806127835250806119ad528061272252508061194c52806126c15250806118eb528061266052508061188a52806125ff52508061114c5250806105d752508061083c525080610f14525080610ef0525080610ab552508061101252508061105452508061103352508061081852508061079d525061470d6000f3fe608060405234801561001057600080fd5b50600436106101f05760003560e01c80637ecebe001161010f578063a9059cbb116100a2578063d5c096c411610071578063d5c096c4146103e6578063d73dd623146103f9578063dd62ed3e1461040c578063f89f27ed1461041f576101f0565b8063a9059cbb146103b0578063aaabadc5146103c3578063c0ff1a15146103cb578063d505accf146103d3576101f0565b80638d928af8116100de5780638d928af81461038557806395d89b411461038d5780639b02cdde146103955780639d2c110c1461039d576101f0565b80637ecebe0014610337578063851c1bb31461034a57806387ec68171461035d578063893d20e814610370576101f0565b806338e9922e11610187578063661884631161015657806366188463146102e8578063679aefce146102fb57806370a082311461030357806374f3b00914610316576101f0565b806338e9922e146102a457806338fff2d0146102b757806355c67628146102bf5780636028bfd4146102c7576101f0565b80631c0de051116101c35780631c0de0511461025d57806323b872dd14610274578063313ce567146102875780633644e5151461029c576101f0565b806306fdde03146101f5578063095ea7b31461021357806316c38b3c1461023357806318160ddd14610248575b600080fd5b6101fd610434565b60405161020a9190614608565b60405180910390f35b6102266102213660046141e2565b6104cb565b60405161020a91906145dc565b6102466102413660046142d8565b6104e2565b005b6102506104f6565b60405161020a91906145ff565b6102656104fc565b60405161020a939291906145e7565b61022661028236600461412d565b610525565b61028f6105a8565b60405161020a9190614674565b6102506105ad565b6102466102b236600461452e565b6105bc565b6102506105d5565b6102506105f9565b6102da6102d53660046142f8565b6105ff565b60405161020a92919061465b565b6102266102f63660046141e2565b610636565b610250610690565b6102506103113660046140d9565b6106bb565b6103296103243660046142f8565b6106da565b60405161020a9291906145b7565b6102506103453660046140d9565b61077c565b6102506103583660046143f4565b610797565b6102da61036b3660046142f8565b6107f0565b610378610816565b60405161020a9190614590565b61037861083a565b6101fd61085e565b6102506108bf565b6102506103ab366004614438565b6108c5565b6102266103be3660046141e2565b6109ac565b6103786109b9565b6102506109c3565b6102466103e136600461416d565b610a86565b6103296103f43660046142f8565b610bf6565b6102266104073660046141e2565b610d17565b61025061041a3660046140f5565b610d4d565b610427610d78565b60405161020a91906145a4565b60038054604080516020601f60026000196101006001881615020190951694909404938401819004810282018101909252828152606093909290918301828280156104c05780601f10610495576101008083540402835291602001916104c0565b820191906000526020600020905b8154815290600101906020018083116104a357829003601f168201915b505050505090505b90565b60006104d8338484610dc5565b5060015b92915050565b6104ea610e27565b6104f381610e55565b50565b60025490565b6000806000610509610ed1565b159250610514610eee565b915061051e610f12565b9050909192565b6001600160a01b0383166000818152600160209081526040808320338085529252822054919261056391148061055b5750838210155b610197610f36565b61056e858585610f44565b336001600160a01b0386161480159061058957506000198114155b1561059b5761059b8533858403610dc5565b60019150505b9392505050565b601290565b60006105b761100e565b905090565b6105c4610e27565b6105cc6110cc565b6104f3816110e1565b7f000000000000000000000000000000000000000000000000000000000000000090565b60075490565b60006060610615865161061061114a565b610d90565b61062a8989898989898961116e61123561129b565b97509795505050505050565b3360009081526001602090815260408083206001600160a01b03861684529091528120548083106106725761066d33856000610dc5565b610686565b61068633856106818487610daf565b610dc5565b5060019392505050565b60006105b761069d6104f6565b6106b56106a86109c3565b6106b061114a565b6113bc565b906113e0565b6001600160a01b0381166000908152602081905260409020545b919050565b606080886107046106e961083a565b6001600160a01b0316336001600160a01b03161460cd610f36565b61071961070f6105d5565b82146101f4610f36565b6000610723611431565b905061072f88826116ad565b60008060006107438e8e8e8e8e8e8e61116e565b9250925092506107538d8461170e565b61075d8285611235565b6107678185611235565b909550935050505b5097509795505050505050565b6001600160a01b031660009081526005602052604090205490565b604080517f00000000000000000000000000000000000000000000000000000000000000006020808301919091526001600160e01b03198416828401528251602481840301815260449092019092528051910120919050565b60006060610801865161061061114a565b61062a898989898989896117a961182561129b565b7f000000000000000000000000000000000000000000000000000000000000000090565b7f000000000000000000000000000000000000000000000000000000000000000090565b60048054604080516020601f60026000196101006001881615020190951694909404938401819004810282018101909252828152606093909290918301828280156104c05780601f10610495576101008083540402835291602001916104c0565b60085490565b6000806108d58560200151611886565b905060006108e68660400151611886565b90506000865160018111156108f757fe5b141561095d5761090a8660600151611b9b565b60608701526109198583611bbf565b94506109258482611bbf565b9350610935866060015183611bbf565b60608701526000610947878787611bcb565b90506109538183611c06565b93505050506105a1565b6109678583611bbf565b94506109738482611bbf565b9350610983866060015182611bbf565b60608701526000610995878787611c12565b90506109a18184611c45565b905061095381611c51565b60006104d8338484610f44565b60006105b7611c68565b6000806109ce61083a565b6001600160a01b031663f94d46686109e46105d5565b6040518263ffffffff1660e01b8152600401610a0091906145ff565b60006040518083038186803b158015610a1857600080fd5b505afa158015610a2c573d6000803e3d6000fd5b505050506040513d6000823e601f3d908101601f19168201604052610a54919081019061420d565b50915050610a6981610a64611431565b6116ad565b6000610a73611ce2565b9050610a7f8183611f3e565b9250505090565b610a948442111560d1610f36565b6001600160a01b0380881660008181526005602090815260408083205481517f00000000000000000000000000000000000000000000000000000000000000008185015280830195909552948b166060850152608084018a905260a0840185905260c08085018a90528151808603909101815260e09094019052825192019190912090610b2082611fb0565b9050600060018288888860405160008152602001604052604051808581526020018460ff1681526020018381526020018281526020019450505050506020604051602081039080840390855afa158015610b7e573d6000803e3d6000fd5b5050604051601f1901519150610bc090506001600160a01b03821615801590610bb857508b6001600160a01b0316826001600160a01b0316145b6101f8610f36565b6001600160a01b038b166000908152600560205260409020600185019055610be98b8b8b610dc5565b5050505050505050505050565b60608088610c056106e961083a565b610c1061070f6105d5565b6000610c1a611431565b9050610c246104f6565b610cc857600080610c378d8d8d8a611ffc565b91509150610c4c620f424083101560cc610f36565b610c5a6000620f4240612097565b610c698b620f42408403612097565b610c738184611825565b80610c7c61114a565b6001600160401b0381118015610c9157600080fd5b50604051908082528060200260200182016040528015610cbb578160200160208202803683370190505b509550955050505061076f565b610cd288826116ad565b6000806000610ce68e8e8e8e8e8e8e6117a9565b925092509250610cf68c84612097565b610d008285611825565b610d0a8185611235565b909550935061076f915050565b3360008181526001602090815260408083206001600160a01b038716845290915281205490916104d89185906106819086610d9d565b6001600160a01b03918216600090815260016020908152604080832093909416825291909152205490565b60606105b7611ce2565b80610d8c81612128565b5050565b610d8c8183146067610f36565b60008282016105a18482101583610f36565b6000610dbf838311156001610f36565b50900390565b6001600160a01b03808416600081815260016020908152604080832094871680845294825291829020859055815185815291517f8c5be1e5ebec7d5bd14f71427d1e84f3dd0314c0f7b2291e5b200ac8c7c3b9259281900390910190a3505050565b6000610e3e6000356001600160e01b031916610797565b90506104f3610e4d82336121a1565b610191610f36565b8015610e7557610e70610e66610eee565b4210610193610f36565b610e8a565b610e8a610e80610f12565b42106101a9610f36565b6006805482151560ff19909116811790915560408051918252517f9e3a5e37224532dea67b89face185703738a228a6e8a23dee546960180d3be649181900360200190a150565b6000610edb610f12565b4211806105b757505060065460ff161590565b7f000000000000000000000000000000000000000000000000000000000000000090565b7f000000000000000000000000000000000000000000000000000000000000000090565b81610d8c57610d8c816122a3565b6001600160a01b038316600090815260208190526040902054610f6c82821015610196610f36565b610f836001600160a01b0384161515610199610f36565b6001600160a01b03808516600090815260208190526040808220858503905591851681522054610fb39083610d9d565b6001600160a01b038085166000818152602081815260409182902094909455805186815290519193928816927fddf252ad1be2c89b69c2b068fc378daa952ba7f163c4a11628f55a4df523b3ef92918290030190a350505050565b60007f00000000000000000000000000000000000000000000000000000000000000007f00000000000000000000000000000000000000000000000000000000000000007f000000000000000000000000000000000000000000000000000000000000000061107b6122f6565b3060405160200180868152602001858152602001848152602001838152602001826001600160a01b031681526020019550505050505060405160208183030381529060405280519060200120905090565b6110df6110d7610ed1565b610192610f36565b565b6110f464e8d4a5100082101560cb610f36565b61110a67016345785d8a000082111560ca610f36565b60078190556040517fa9ba3ffe0b6c366b81232caab38605a0699ad5398d6cce76f91ee809e322dafc9061113f9083906145ff565b60405180910390a150565b7f000000000000000000000000000000000000000000000000000000000000000090565b6000606080600061117d611ce2565b9050611187610ed1565b156111be576000611198828a611f3e565b90506111a98983600854848b6122fa565b92506111b88984610daf61240a565b50611209565b6111c661114a565b6001600160401b03811180156111db57600080fd5b50604051908082528060200260200182016040528015611205578160200160208202803683370190505b5091505b611214888287612475565b90945092506112248884836124e2565b600855509750975097945050505050565b60005b61124061114a565b8110156112965761127783828151811061125657fe5b602002602001015183838151811061126a57fe5b60200260200101516124fb565b83828151811061128357fe5b6020908102919091010152600101611238565b505050565b333014611359576000306001600160a01b03166000366040516112bf929190614580565b6000604051808303816000865af19150503d80600081146112fc576040519150601f19603f3d011682016040523d82523d6000602084013e611301565b606091505b50509050806000811461131057fe5b60046000803e6000516001600160e01b0319166343adbafb60e01b811461133b573d6000803e3d6000fd5b506020600460003e604060205260243d03602460403e601c3d016000f35b6000611363611431565b905061136f87826116ad565b6000806113858c8c8c8c8c8c8c8c63ffffffff16565b509150915061139881848663ffffffff16565b8051601f1982018390526343adbafb603f1983015260200260231982016044820181fd5b60008282026105a18415806113d95750838583816113d657fe5b04145b6003610f36565b60006113ef8215156004610f36565b826113fc575060006104dc565b670de0b6b3a76400008381029061141f9085838161141657fe5b04146005610f36565b82818161142857fe5b049150506104dc565b6060600061143d61114a565b90506000816001600160401b038111801561145757600080fd5b50604051908082528060200260200182016040528015611481578160200160208202803683370190505b50905081156114c9577f0000000000000000000000000000000000000000000000000000000000000000816000815181106114b857fe5b6020026020010181815250506114d2565b91506104c89050565b60018211156114c9577f00000000000000000000000000000000000000000000000000000000000000008160018151811061150957fe5b60200260200101818152505060028211156114c9577f00000000000000000000000000000000000000000000000000000000000000008160028151811061154c57fe5b60200260200101818152505060038211156114c9577f00000000000000000000000000000000000000000000000000000000000000008160038151811061158f57fe5b60200260200101818152505060048211156114c9577f0000000000000000000000000000000000000000000000000000000000000000816004815181106115d257fe5b60200260200101818152505060058211156114c9577f00000000000000000000000000000000000000000000000000000000000000008160058151811061161557fe5b60200260200101818152505060068211156114c9577f00000000000000000000000000000000000000000000000000000000000000008160068151811061165857fe5b60200260200101818152505060078211156114c9577f00000000000000000000000000000000000000000000000000000000000000008160078151811061169b57fe5b60200260200101818152505091505090565b60005b6116b861114a565b811015611296576116ef8382815181106116ce57fe5b60200260200101518383815181106116e257fe5b60200260200101516113bc565b8382815181106116fb57fe5b60209081029190910101526001016116b0565b6001600160a01b03821660009081526020819052604090205461173682821015610196610f36565b6001600160a01b038316600090815260208190526040902082820390556002546117609083610daf565b6002556040805183815290516000916001600160a01b038616917fddf252ad1be2c89b69c2b068fc378daa952ba7f163c4a11628f55a4df523b3ef9181900360200190a3505050565b60006060806117b66110cc565b60006117c0611ce2565b905060006117ce828a611f3e565b905060006117e18a84600854858c6122fa565b90506117f08a82610daf61240a565b6000806117fe8c868b61251b565b9150915061180d8c8287612575565b600855909e909d50909b509950505050505050505050565b60005b61183061114a565b8110156112965761186783828151811061184657fe5b602002602001015183838151811061185a57fe5b6020026020010151612584565b83828151811061187357fe5b6020908102919091010152600101611828565b60007f00000000000000000000000000000000000000000000000000000000000000006001600160a01b0316826001600160a01b031614156118e957507f00000000000000000000000000000000000000000000000000000000000000006106d5565b7f00000000000000000000000000000000000000000000000000000000000000006001600160a01b0316826001600160a01b0316141561194a57507f00000000000000000000000000000000000000000000000000000000000000006106d5565b7f00000000000000000000000000000000000000000000000000000000000000006001600160a01b0316826001600160a01b031614156119ab57507f00000000000000000000000000000000000000000000000000000000000000006106d5565b7f00000000000000000000000000000000000000000000000000000000000000006001600160a01b0316826001600160a01b03161415611a0c57507f00000000000000000000000000000000000000000000000000000000000000006106d5565b7f00000000000000000000000000000000000000000000000000000000000000006001600160a01b0316826001600160a01b03161415611a6d57507f00000000000000000000000000000000000000000000000000000000000000006106d5565b7f00000000000000000000000000000000000000000000000000000000000000006001600160a01b0316826001600160a01b03161415611ace57507f00000000000000000000000000000000000000000000000000000000000000006106d5565b7f00000000000000000000000000000000000000000000000000000000000000006001600160a01b0316826001600160a01b03161415611b2f57507f00000000000000000000000000000000000000000000000000000000000000006106d5565b7f00000000000000000000000000000000000000000000000000000000000000006001600160a01b0316826001600160a01b03161415611b9057507f00000000000000000000000000000000000000000000000000000000000000006106d5565b6106d56101356122a3565b600080611bb3600754846125b790919063ffffffff16565b90506105a18382610daf565b60006105a183836113bc565b6000611bd56110cc565b611bfe83611be686602001516125fb565b84611bf488604001516125fb565b8860600151612905565b949350505050565b60006105a183836124fb565b6000611c1c6110cc565b611bfe83611c2d86602001516125fb565b84611c3b88604001516125fb565b8860600151612980565b60006105a18383612584565b60006104dc611c616007546129f6565b8390612a1c565b6000611c7261083a565b6001600160a01b031663aaabadc56040518163ffffffff1660e01b815260040160206040518083038186803b158015611caa57600080fd5b505afa158015611cbe573d6000803e3d6000fd5b505050506040513d601f19601f820116820180604052508101906105b7919061441c565b60606000611cee61114a565b90506000816001600160401b0381118015611d0857600080fd5b50604051908082528060200260200182016040528015611d32578160200160208202803683370190505b50905081156114c9577f000000000000000000000000000000000000000000000000000000000000000081600081518110611d6957fe5b60200260200101818152505060018211156114c9577f000000000000000000000000000000000000000000000000000000000000000081600181518110611dac57fe5b60200260200101818152505060028211156114c9577f000000000000000000000000000000000000000000000000000000000000000081600281518110611def57fe5b60200260200101818152505060038211156114c9577f000000000000000000000000000000000000000000000000000000000000000081600381518110611e3257fe5b60200260200101818152505060048211156114c9577f000000000000000000000000000000000000000000000000000000000000000081600481518110611e7557fe5b60200260200101818152505060058211156114c9577f000000000000000000000000000000000000000000000000000000000000000081600581518110611eb857fe5b60200260200101818152505060068211156114c9577f000000000000000000000000000000000000000000000000000000000000000081600681518110611efb57fe5b60200260200101818152505060078211156114c9577f00000000000000000000000000000000000000000000000000000000000000008160078151811061169b57fe5b670de0b6b3a764000060005b8351811015611fa057611f96611f8f858381518110611f6557fe5b6020026020010151858481518110611f7957fe5b6020026020010151612a5e90919063ffffffff16565b8390612aad565b9150600101611f4a565b506104dc60008211610137610f36565b6000611fba61100e565b82604051602001808061190160f01b81525060020183815260200182815260200192505050604051602081830303815290604052805190602001209050919050565b600060606120086110cc565b600061201384612ad9565b905061202e600082600281111561202657fe5b1460ce610f36565b600061203985612af8565b905061204d61204661114a565b8251610d90565b61205981610a64611431565b6000612063611ce2565b905060006120718284611f3e565b90506000612081826106b061114a565b6008929092555099919850909650505050505050565b6001600160a01b0382166000908152602081905260409020546120ba9082610d9d565b6001600160a01b0383166000908152602081905260409020556002546120e09082610d9d565b6002556040805182815290516001600160a01b038416916000917fddf252ad1be2c89b69c2b068fc378daa952ba7f163c4a11628f55a4df523b3ef9181900360200190a35050565b600281511015612137576104f3565b60008160008151811061214657fe5b602002602001015190506000600190505b825181101561129657600083828151811061216e57fe5b60200260200101519050612197816001600160a01b0316846001600160a01b0316106065610f36565b9150600101612157565b600073ba1ba1ba1ba1ba1ba1ba1ba1ba1ba1ba1ba1ba1b6121c0610816565b6001600160a01b0316141580156121db57506121db83612bac565b15612203576121e8610816565b6001600160a01b0316336001600160a01b03161490506104dc565b61220b611c68565b6001600160a01b0316639be2a8848484306040518463ffffffff1660e01b815260040180848152602001836001600160a01b03168152602001826001600160a01b03168152602001935050505060206040518083038186803b15801561227057600080fd5b505afa158015612284573d6000803e3d6000fd5b505050506040513d602081101561229a57600080fd5b505190506104dc565b62461bcd60e51b6000908152602060045260076024526642414c23000030600a808404818106603090810160081b95839006959095019082900491820690940160101b939093010160c81b604452606490fd5b4690565b6060600061230661114a565b6001600160401b038111801561231b57600080fd5b50604051908082528060200260200182016040528015612345578160200160208202803683370190505b50905082612354579050612401565b6123c7877f00000000000000000000000000000000000000000000000000000000000000008151811061238357fe5b6020026020010151877f0000000000000000000000000000000000000000000000000000000000000000815181106123b757fe5b6020026020010151878787612bc6565b817f0000000000000000000000000000000000000000000000000000000000000000815181106123f357fe5b602090810291909101015290505b95945050505050565b60005b61241561114a565b81101561246f5761245084828151811061242b57fe5b602002602001015184838151811061243f57fe5b60200260200101518463ffffffff16565b84828151811061245c57fe5b602090810291909101015260010161240d565b50505050565b60006060600061248484612ad9565b9050600081600281111561249457fe5b14156124af576124a5868686612c3e565b92509250506124da565b60018160028111156124bd57fe5b14156124cd576124a58685612d1b565b6124a5868686612d4d565b505b935093915050565b60006124f18484610daf61240a565b611bfe8285611f3e565b600061250a8215156004610f36565b81838161251357fe5b049392505050565b60006060600061252a84612ad9565b9050600181600281111561253a57fe5b141561254b576124a5868686612db7565b600281600281111561255957fe5b141561256a576124a5868686612e11565b6124d86101366122a3565b60006124f18484610d9d61240a565b60006125938215156004610f36565b826125a0575060006104dc565b8160018403816125ac57fe5b0460010190506104dc565b60008282026125d18415806113d95750838583816113d657fe5b806125e05760009150506104dc565b670de0b6b3a764000060001982015b046001019150506104dc565b60007f00000000000000000000000000000000000000000000000000000000000000006001600160a01b0316826001600160a01b0316141561265e57507f00000000000000000000000000000000000000000000000000000000000000006106d5565b7f00000000000000000000000000000000000000000000000000000000000000006001600160a01b0316826001600160a01b031614156126bf57507f00000000000000000000000000000000000000000000000000000000000000006106d5565b7f00000000000000000000000000000000000000000000000000000000000000006001600160a01b0316826001600160a01b0316141561272057507f00000000000000000000000000000000000000000000000000000000000000006106d5565b7f00000000000000000000000000000000000000000000000000000000000000006001600160a01b0316826001600160a01b0316141561278157507f00000000000000000000000000000000000000000000000000000000000000006106d5565b7f00000000000000000000000000000000000000000000000000000000000000006001600160a01b0316826001600160a01b031614156127e257507f00000000000000000000000000000000000000000000000000000000000000006106d5565b7f00000000000000000000000000000000000000000000000000000000000000006001600160a01b0316826001600160a01b0316141561284357507f00000000000000000000000000000000000000000000000000000000000000006106d5565b7f00000000000000000000000000000000000000000000000000000000000000006001600160a01b0316826001600160a01b031614156128a457507f00000000000000000000000000000000000000000000000000000000000000006106d5565b7f00000000000000000000000000000000000000000000000000000000000000006001600160a01b0316826001600160a01b03161415611b9057507f00000000000000000000000000000000000000000000000000000000000000006106d5565b600061292761291c87670429d069189e0000612aad565b831115610130610f36565b60006129338784610d9d565b905060006129418883612a1c565b9050600061294f88876113e0565b9050600061295d8383612eb8565b905061297261296b826129f6565b8990612aad565b9a9950505050505050505050565b60006129a261299785670429d069189e0000612aad565b831115610131610f36565b60006129b86129b18685610daf565b8690612a1c565b905060006129c68588612a1c565b905060006129d48383612eb8565b905060006129ea82670de0b6b3a7640000610daf565b90506129728a826125b7565b6000670de0b6b3a76400008210612a0e5760006104dc565b50670de0b6b3a76400000390565b6000612a2b8215156004610f36565b82612a38575060006104dc565b670de0b6b3a764000083810290612a529085838161141657fe5b8260018203816125ef57fe5b600080612a6b8484612ee4565b90506000612a85612a7e836127106125b7565b6001610d9d565b905080821015612a9a576000925050506104dc565b612aa48282610daf565b925050506104dc565b6000828202612ac78415806113d95750838583816113d657fe5b670de0b6b3a764000090049392505050565b6000818060200190516020811015612af057600080fd5b505192915050565b6060818060200190516040811015612b0f57600080fd5b815160208301805160405192949293830192919084640100000000821115612b3657600080fd5b908301906020820185811115612b4b57600080fd5b8251866020820283011164010000000082111715612b6857600080fd5b82525081516020918201928201910280838360005b83811015612b95578181015183820152602001612b7d565b505050509190910160405250929695505050505050565b6000612bbe631c74c91760e11b610797565b909114919050565b6000838311612bd757506000612401565b6000612be38585612a1c565b90506000612bf9670de0b6b3a7640000886113e0565b9050612c0d826709b6e64a8ec60000612fef565b91506000612c1b8383612eb8565b90506000612c32612c2b836129f6565b8b90612aad565b90506129728187612aad565b60006060612c4a6110cc565b600080612c5685613006565b91509150612c6e612c6561114a565b82106064610f36565b6000612c7861114a565b6001600160401b0381118015612c8d57600080fd5b50604051908082528060200260200182016040528015612cb7578160200160208202803683370190505b509050612cf6888381518110612cc957fe5b6020026020010151888481518110612cdd57fe5b602002602001015185612cee6104f6565b600754613034565b818381518110612d0257fe5b6020908102919091010152919791965090945050505050565b600060606000612d2a846130f1565b90506000612d408683612d3b6104f6565b613113565b9196919550909350505050565b60006060612d596110cc565b600080612d65856131c4565b91509150612d76825161061061114a565b612d8282610a64611431565b6000612d9a888885612d926104f6565b600754613281565b9050612daa8282111560cf610f36565b9791965090945050505050565b60006060600080612dc7856131c4565b91509150612ddd612dd661114a565b8351610d90565b612de982610a64611431565b6000612e01888885612df96104f6565b6007546134a4565b9050612daa8282101560d0610f36565b60006060600080612e2185613006565b91509150612e30612c6561114a565b6000612e3a61114a565b6001600160401b0381118015612e4f57600080fd5b50604051908082528060200260200182016040528015612e79578160200160208202803683370190505b509050612cf6888381518110612e8b57fe5b6020026020010151888481518110612e9f57fe5b602002602001015185612eb06104f6565b6007546136b3565b600080612ec58484612ee4565b90506000612ed8612a7e836127106125b7565b90506124018282610d9d565b600081612efa5750670de0b6b3a76400006104dc565b82612f07575060006104dc565b612f18600160ff1b84106006610f36565b82612f3e770bce5086492111aea88f4bb1ca6bcf584181ea8059f7653284106007610f36565b826000670c7d713b49da000083138015612f5f5750670f43fc2c04ee000083125b15612f96576000612f6f84613755565b9050670de0b6b3a764000080820784020583670de0b6b3a764000083050201915050612fa4565b81612fa084613873565b0290505b670de0b6b3a76400009005612fdc680238fd42c5cf03ffff198212801590612fd5575068070c1cc73b00c800008213155b6008610f36565b612fe581613c12565b9695505050505050565b600081831015612fff57816105a1565b5090919050565b60008082806020019051606081101561301e57600080fd5b5060208101516040909101519094909350915050565b60008061304b846130458188610daf565b90612a1c565b90506130646709b6e64a8ec60000821015610132610f36565b600061308261307b670de0b6b3a7640000896113e0565b8390612eb8565b90506000613099613092836129f6565b8a90612aad565b905060006130a6896129f6565b905060006130b483836125b7565b905060006130c28483610daf565b90506130e16130da6130d38a6129f6565b8490612aad565b8290610d9d565b9c9b505050505050505050505050565b600081806020019051604081101561310857600080fd5b506020015192915050565b6060600061312184846113e0565b9050600085516001600160401b038111801561313c57600080fd5b50604051908082528060200260200182016040528015613166578160200160208202803683370190505b50905060005b86518110156131ba5761319b8388838151811061318557fe5b6020026020010151612aad90919063ffffffff16565b8282815181106131a757fe5b602090810291909101015260010161316c565b5095945050505050565b606060008280602001905160608110156131dd57600080fd5b81516020830180516040519294929383019291908464010000000082111561320457600080fd5b90830190602082018581111561321957600080fd5b825186602082028301116401000000008211171561323657600080fd5b82525081516020918201928201910280838360005b8381101561326357818101518382015260200161324b565b50505050919091016040525060200151929792965091945050505050565b60008084516001600160401b038111801561329b57600080fd5b506040519080825280602002602001820160405280156132c5578160200160208202803683370190505b5090506000805b885181101561338a576133258982815181106132e457fe5b60200260200101516130458984815181106132fb57fe5b60200260200101518c858151811061330f57fe5b6020026020010151610daf90919063ffffffff16565b83828151811061333157fe5b60200260200101818152505061338061337989838151811061334f57fe5b602002602001015185848151811061336357fe5b60200260200101516125b790919063ffffffff16565b8390610d9d565b91506001016132cc565b50670de0b6b3a764000060005b89518110156134835760008482815181106133ae57fe5b60200260200101518411156134055760006133d76133cb866129f6565b8d858151811061318557fe5b905060006133eb828c868151811061330f57fe5b90506133fc613379611c618b6129f6565b9250505061341c565b88828151811061341157fe5b602002602001015190505b60006134458c848151811061342d57fe5b60200260200101516106b5848f878151811061330f57fe5b90506134776134708c858151811061345957fe5b602002602001015183612a5e90919063ffffffff16565b8590612aad565b93505050600101613397565b50613497613490826129f6565b87906125b7565b9998505050505050505050565b60008084516001600160401b03811180156134be57600080fd5b506040519080825280602002602001820160405280156134e8578160200160208202803683370190505b5090506000805b88518110156135905761354889828151811061350757fe5b60200260200101516106b589848151811061351e57fe5b60200260200101518c858151811061353257fe5b6020026020010151610d9d90919063ffffffff16565b83828151811061355457fe5b60200260200101818152505061358661337989838151811061357257fe5b602002602001015185848151811061318557fe5b91506001016134ef565b50670de0b6b3a764000060005b8951811015613671576000838583815181106135b557fe5b602002602001015111156136115760006135da6133cb86670de0b6b3a7640000610daf565b905060006135ee828c868151811061330f57fe5b9050613608613379611f8f670de0b6b3a76400008c610daf565b92505050613628565b88828151811061361d57fe5b602002602001015190505b60006136518c848151811061363957fe5b60200260200101516106b5848f878151811061353257fe5b90506136656134708c858151811061345957fe5b9350505060010161359d565b50670de0b6b3a764000081106136a75761369d61369682670de0b6b3a7640000610daf565b8790612aad565b9350505050612401565b60009350505050612401565b6000806136c4846130458188610d9d565b90506136dd6729a2241af62c0000821115610133610f36565b60006136f461307b670de0b6b3a764000089612a1c565b9050600061371461370d83670de0b6b3a7640000610daf565b8a906125b7565b90506000613721896129f6565b9050600061372f83836125b7565b9050600061373d8483610daf565b90506130e16130da61374e8a6129f6565b8490612a1c565b670de0b6b3a7640000026000806a0c097ce7bc90715b34b9f160241b808401906ec097ce7bc90715b34b9f0fffffffff198501028161379057fe5b05905060006a0c097ce7bc90715b34b9f160241b82800205905081806a0c097ce7bc90715b34b9f160241b81840205915060038205016a0c097ce7bc90715b34b9f160241b82840205915060058205016a0c097ce7bc90715b34b9f160241b82840205915060078205016a0c097ce7bc90715b34b9f160241b82840205915060098205016a0c097ce7bc90715b34b9f160241b828402059150600b8205016a0c097ce7bc90715b34b9f160241b828402059150600d8205016a0c097ce7bc90715b34b9f160241b828402059150600f826002919005919091010295945050505050565b6000670de0b6b3a76400008212156138af576138a5826a0c097ce7bc90715b34b9f160241b8161389f57fe5b05613873565b60000390506106d5565b60007e1600ef3172e58d2e933ec884fde10064c63b5372d805e203c0000000000000831261390057770195e54c5dd42177f53a27172fa9ec630262827000000000830592506806f05b59d3b2000000015b73011798004d755d3c8bc8e03204cf44619e0000008312613938576b1425982cf597cd205cef7380830592506803782dace9d9000000015b606492830292026e01855144814a7ff805980ff00840008312613980576e01855144814a7ff805980ff008400068056bc75e2d63100000840205925068ad78ebc5ac62000000015b6b02df0ab5a80a22c61ab5a70083126139bb576b02df0ab5a80a22c61ab5a70068056bc75e2d6310000084020592506856bc75e2d631000000015b693f1fce3da636ea5cf85083126139f257693f1fce3da636ea5cf85068056bc75e2d631000008402059250682b5e3af16b18800000015b690127fa27722cc06cc5e28312613a2957690127fa27722cc06cc5e268056bc75e2d6310000084020592506815af1d78b58c400000015b68280e60114edb805d038312613a5e5768280e60114edb805d0368056bc75e2d631000008402059250680ad78ebc5ac6200000015b680ebc5fb417461211108312613a8957680ebc5fb4174612111068056bc75e2d631000009384020592015b6808f00f760a4b2db55d8312613abe576808f00f760a4b2db55d68056bc75e2d6310000084020592506802b5e3af16b1880000015b6806f5f17757889379378312613af3576806f5f177578893793768056bc75e2d63100000840205925068015af1d78b58c40000015b6806248f33704b2866038312613b27576806248f33704b28660368056bc75e2d63100000840205925067ad78ebc5ac620000015b6805c548670b9510e7ac8312613b5b576805c548670b9510e7ac68056bc75e2d6310000084020592506756bc75e2d6310000015b600068056bc75e2d63100000840168056bc75e2d631000008086030281613b7e57fe5b059050600068056bc75e2d63100000828002059050818068056bc75e2d63100000818402059150600382050168056bc75e2d63100000828402059150600582050168056bc75e2d63100000828402059150600782050168056bc75e2d63100000828402059150600982050168056bc75e2d63100000828402059150600b820501600202606485820105979650505050505050565b6000613c41680238fd42c5cf03ffff198312158015613c3a575068070c1cc73b00c800008313155b6009610f36565b6000821215613c7457613c5682600003613c12565b6a0c097ce7bc90715b34b9f160241b81613c6c57fe5b0590506106d5565b60006806f05b59d3b20000008312613cb457506806f05b59d3b1ffffff1990910190770195e54c5dd42177f53a27172fa9ec630262827000000000613cea565b6803782dace9d90000008312613ce657506803782dace9d8ffffff19909101906b1425982cf597cd205cef7380613cea565b5060015b6064929092029168056bc75e2d6310000068ad78ebc5ac620000008412613d3a5768ad78ebc5ac61ffffff199093019268056bc75e2d631000006e01855144814a7ff805980ff008400082020590505b6856bc75e2d6310000008412613d76576856bc75e2d630ffffff199093019268056bc75e2d631000006b02df0ab5a80a22c61ab5a70082020590505b682b5e3af16b188000008412613db057682b5e3af16b187fffff199093019268056bc75e2d63100000693f1fce3da636ea5cf85082020590505b6815af1d78b58c4000008412613dea576815af1d78b58c3fffff199093019268056bc75e2d63100000690127fa27722cc06cc5e282020590505b680ad78ebc5ac62000008412613e2357680ad78ebc5ac61fffff199093019268056bc75e2d6310000068280e60114edb805d0382020590505b68056bc75e2d631000008412613e5c5768056bc75e2d630fffff199093019268056bc75e2d63100000680ebc5fb4174612111082020590505b6802b5e3af16b18800008412613e95576802b5e3af16b187ffff199093019268056bc75e2d631000006808f00f760a4b2db55d82020590505b68015af1d78b58c400008412613ece5768015af1d78b58c3ffff199093019268056bc75e2d631000006806f5f177578893793782020590505b68056bc75e2d631000008481019085906002908280020505918201919050600368056bc75e2d631000008783020505918201919050600468056bc75e2d631000008783020505918201919050600568056bc75e2d631000008783020505918201919050600668056bc75e2d631000008783020505918201919050600768056bc75e2d631000008783020505918201919050600868056bc75e2d631000008783020505918201919050600968056bc75e2d631000008783020505918201919050600a68056bc75e2d631000008783020505918201919050600b68056bc75e2d631000008783020505918201919050600c68056bc75e2d631000008783020505918201919050606468056bc75e2d63100000848402058502059695505050505050565b80356106d5816146c2565b600082601f83011261400a578081fd5b8151602061401f61401a836146a5565b614682565b828152818101908583018385028701840188101561403b578586fd5b855b858110156140595781518452928401929084019060010161403d565b5090979650505050505050565b600082601f830112614076578081fd5b81356001600160401b0381111561408957fe5b61409c601f8201601f1916602001614682565b8181528460208386010111156140b0578283fd5b816020850160208301379081016020019190915292915050565b8035600281106106d557600080fd5b6000602082840312156140ea578081fd5b81356105a1816146c2565b60008060408385031215614107578081fd5b8235614112816146c2565b91506020830135614122816146c2565b809150509250929050565b600080600060608486031215614141578081fd5b833561414c816146c2565b9250602084013561415c816146c2565b929592945050506040919091013590565b600080600080600080600060e0888a031215614187578283fd5b8735614192816146c2565b965060208801356141a2816146c2565b95506040880135945060608801359350608088013560ff811681146141c5578384fd5b9699959850939692959460a0840135945060c09093013592915050565b600080604083850312156141f4578182fd5b82356141ff816146c2565b946020939093013593505050565b600080600060608486031215614221578081fd5b83516001600160401b0380821115614237578283fd5b818601915086601f83011261424a578283fd5b8151602061425a61401a836146a5565b82815281810190858301838502870184018c1015614276578788fd5b8796505b848710156142a157805161428d816146c2565b83526001969096019591830191830161427a565b50918901519197509093505050808211156142ba578283fd5b506142c786828701613ffa565b925050604084015190509250925092565b6000602082840312156142e9578081fd5b813580151581146105a1578182fd5b600080600080600080600060e0888a031215614312578081fd5b87359650602080890135614325816146c2565b96506040890135614335816146c2565b955060608901356001600160401b0380821115614350578384fd5b818b0191508b601f830112614363578384fd5b813561437161401a826146a5565b8082825285820191508585018f87888602880101111561438f578788fd5b8795505b838610156143b1578035835260019590950194918601918601614393565b509850505060808b0135955060a08b0135945060c08b01359250808311156143d7578384fd5b50506143e58a828b01614066565b91505092959891949750929550565b600060208284031215614405578081fd5b81356001600160e01b0319811681146105a1578182fd5b60006020828403121561442d578081fd5b81516105a1816146c2565b60008060006060848603121561444c578081fd5b83356001600160401b0380821115614462578283fd5b8186019150610120808389031215614478578384fd5b61448181614682565b905061448c836140ca565b815261449a60208401613fef565b60208201526144ab60408401613fef565b6040820152606083013560608201526080830135608082015260a083013560a08201526144da60c08401613fef565b60c08201526144eb60e08401613fef565b60e08201526101008084013583811115614503578586fd5b61450f8a828701614066565b9183019190915250976020870135975060409096013595945050505050565b60006020828403121561453f578081fd5b5035919050565b6000815180845260208085019450808401835b8381101561457557815187529582019590820190600101614559565b509495945050505050565b6000828483379101908152919050565b6001600160a01b0391909116815260200190565b6000602082526105a16020830184614546565b6000604082526145ca6040830185614546565b82810360208401526124018185614546565b901515815260200190565b92151583526020830191909152604082015260600190565b90815260200190565b6000602080835283518082850152825b8181101561463457858101830151858201604001528201614618565b818111156146455783604083870101525b50601f01601f1916929092016040019392505050565b600083825260406020830152611bfe6040830184614546565b60ff91909116815260200190565b6040518181016001600160401b038111828210171561469d57fe5b604052919050565b60006001600160401b038211156146b857fe5b5060209081020190565b6001600160a01b03811681146104f357600080fdfea26469706673582212201a7ed92ece4af2415d9806cf59210c38988e97c25d67f483fc34e21ea70720e464736f6c63430007060033",
    "linkReferences": {}
  },
  "methodIdentifiers": {
    "DOMAIN_SEPARATOR()": "3644e515",
    "allowance(address,address)": "dd62ed3e",
    "approve(address,uint256)": "095ea7b3",
    "balanceOf(address)": "70a08231",
    "decimals()": "313ce567",
    "decreaseApproval(address,uint256)": "66188463",
    "getActionId(bytes4)": "851c1bb3",
    "getAuthorizer()": "aaabadc5",
    "getInvariant()": "c0ff1a15",
    "getLastInvariant()": "9b02cdde",
    "getNormalizedWeights()": "f89f27ed",
    "getOwner()": "893d20e8",
    "getPausedState()": "1c0de051",
    "getPoolId()": "38fff2d0",
    "getRate()": "679aefce",
    "getSwapFeePercentage()": "55c67628",
    "getVault()": "8d928af8",
    "increaseApproval(address,uint256)": "d73dd623",
    "name()": "06fdde03",
    "nonces(address)": "7ecebe00",
    "onExitPool(bytes32,address,address,uint256[],uint256,uint256,bytes)": "74f3b009",
    "onJoinPool(bytes32,address,address,uint256[],uint256,uint256,bytes)": "d5c096c4",
    "onSwap((uint8,address,address,uint256,bytes32,uint256,address,address,bytes),uint256,uint256)": "9d2c110c",
    "permit(address,address,uint256,uint256,uint8,bytes32,bytes32)": "d505accf",
    "queryExit(bytes32,address,address,uint256[],uint256,uint256,bytes)": "6028bfd4",
    "queryJoin(bytes32,address,address,uint256[],uint256,uint256,bytes)": "87ec6817",
    "setPaused(bool)": "16c38b3c",
    "setSwapFeePercentage(uint256)": "38e9922e",
    "symbol()": "95d89b41",
    "totalSupply()": "18160ddd",
    "transfer(address,uint256)": "a9059cbb",
    "transferFrom(address,address,uint256)": "23b872dd"
  },
  "id": 29
}