{
  "abi": [
    {
      "inputs": [
        {
          "components": [
            {
              "internalType": "contract IVault",
              "name": "vault",
              "type": "address"
            },
            {
              "internalType": "string",
              "name": "name",
              "type": "string"
            },
            {
              "internalType": "string",
              "name": "symbol",
              "type": "string"
            },
            {
              "internalType": "contract IERC20",
              "name": "token0",
              "type": "address"
            },
            {
              "internalType": "contract IERC20",
              "name": "token1",
              "type": "address"
            },
            {
              "internalType": "uint256",
              "name": "normalizedWeight0",
              "type": "uint256"
            },
            {
              "internalType": "uint256",
              "name": "normalizedWeight1",
              "type": "uint256"
            },
            {
              "internalType": "uint256",
              "name": "swapFeePercentage",
              "type": "uint256"
            },
            {
              "internalType": "uint256",
              "name": "pauseWindowDuration",
              "type": "uint256"
            },
            {
              "internalType": "uint256",
              "name": "bufferPeriodDuration",
              "type": "uint256"
            },
            {
              "internalType": "bool",
              "name": "oracleEnabled",
              "type": "bool"
            },
            {
              "internalType": "address",
              "name": "owner",
              "type": "address"
            }
          ],
          "internalType": "struct WeightedPool2Tokens.NewPoolParams",
          "name": "params",
          "type": "tuple"
        }
      ],
      "stateMutability": "nonpayable",
      "type": "constructor"
    },
    {
      "anonymous": false,
      "inputs": [
        {
          "indexed": true,
          "internalType": "address",
          "name": "owner",
          "type": "address"
        },
        {
          "indexed": true,
          "internalType": "address",
          "name": "spender",
          "type": "address"
        },
        {
          "indexed": false,
          "internalType": "uint256",
          "name": "value",
          "type": "uint256"
        }
      ],
      "name": "Approval",
      "type": "event"
    },
    {
      "anonymous": false,
      "inputs": [
        {
          "indexed": false,
          "internalType": "bool",
          "name": "enabled",
          "type": "bool"
        }
      ],
      "name": "OracleEnabledChanged",
      "type": "event"
    },
    {
      "anonymous": false,
      "inputs": [
        {
          "indexed": false,
          "internalType": "bool",
          "name": "paused",
          "type": "bool"
        }
      ],
      "name": "PausedStateChanged",
      "type": "event"
    },
    {
      "anonymous": false,
      "inputs": [
        {
          "indexed": false,
          "internalType": "uint256",
          "name": "swapFeePercentage",
          "type": "uint256"
        }
      ],
      "name": "SwapFeePercentageChanged",
      "type": "event"
    },
    {
      "anonymous": false,
      "inputs": [
        {
          "indexed": true,
          "internalType": "address",
          "name": "from",
          "type": "address"
        },
        {
          "indexed": true,
          "internalType": "address",
          "name": "to",
          "type": "address"
        },
        {
          "indexed": false,
          "internalType": "uint256",
          "name": "value",
          "type": "uint256"
        }
      ],
      "name": "Transfer",
      "type": "event"
    },
    {
      "inputs": [],
      "name": "DOMAIN_SEPARATOR",
      "outputs": [
        {
          "internalType": "bytes32",
          "name": "",
          "type": "bytes32"
        }
      ],
      "stateMutability": "view",
      "type": "function"
    },
    {
      "inputs": [
        {
          "internalType": "address",
          "name": "owner",
          "type": "address"
        },
        {
          "internalType": "address",
          "name": "spender",
          "type": "address"
        }
      ],
      "name": "allowance",
      "outputs": [
        {
          "internalType": "uint256",
          "name": "",
          "type": "uint256"
        }
      ],
      "stateMutability": "view",
      "type": "function"
    },
    {
      "inputs": [
        {
          "internalType": "address",
          "name": "spender",
          "type": "address"
        },
        {
          "internalType": "uint256",
          "name": "amount",
          "type": "uint256"
        }
      ],
      "name": "approve",
      "outputs": [
        {
          "internalType": "bool",
          "name": "",
          "type": "bool"
        }
      ],
      "stateMutability": "nonpayable",
      "type": "function"
    },
    {
      "inputs": [
        {
          "internalType": "address",
          "name": "account",
          "type": "address"
        }
      ],
      "name": "balanceOf",
      "outputs": [
        {
          "internalType": "uint256",
          "name": "",
          "type": "uint256"
        }
      ],
      "stateMutability": "view",
      "type": "function"
    },
    {
      "inputs": [],
      "name": "decimals",
      "outputs": [
        {
          "internalType": "uint8",
          "name": "",
          "type": "uint8"
        }
      ],
      "stateMutability": "pure",
      "type": "function"
    },
    {
      "inputs": [
        {
          "internalType": "address",
          "name": "spender",
          "type": "address"
        },
        {
          "internalType": "uint256",
          "name": "amount",
          "type": "uint256"
        }
      ],
      "name": "decreaseApproval",
      "outputs": [
        {
          "internalType": "bool",
          "name": "",
          "type": "bool"
        }
      ],
      "stateMutability": "nonpayable",
      "type": "function"
    },
    {
      "inputs": [],
      "name": "enableOracle",
      "outputs": [],
      "stateMutability": "nonpayable",
      "type": "function"
    },
    {
      "inputs": [
        {
          "internalType": "bytes4",
          "name": "selector",
          "type": "bytes4"
        }
      ],
      "name": "getActionId",
      "outputs": [
        {
          "internalType": "bytes32",
          "name": "",
          "type": "bytes32"
        }
      ],
      "stateMutability": "view",
      "type": "function"
    },
    {
      "inputs": [],
      "name": "getAuthorizer",
      "outputs": [
        {
          "internalType": "contract IAuthorizer",
          "name": "",
          "type": "address"
        }
      ],
      "stateMutability": "view",
      "type": "function"
    },
    {
      "inputs": [],
      "name": "getInvariant",
      "outputs": [
        {
          "internalType": "uint256",
          "name": "",
          "type": "uint256"
        }
      ],
      "stateMutability": "view",
      "type": "function"
    },
    {
      "inputs": [],
      "name": "getLargestSafeQueryWindow",
      "outputs": [
        {
          "internalType": "uint256",
          "name": "",
          "type": "uint256"
        }
      ],
      "stateMutability": "pure",
      "type": "function"
    },
    {
      "inputs": [],
      "name": "getLastInvariant",
      "outputs": [
        {
          "internalType": "uint256",
          "name": "",
          "type": "uint256"
        }
      ],
      "stateMutability": "view",
      "type": "function"
    },
    {
      "inputs": [
        {
          "internalType": "enum IPriceOracle.Variable",
          "name": "variable",
          "type": "uint8"
        }
      ],
      "name": "getLatest",
      "outputs": [
        {
          "internalType": "uint256",
          "name": "",
          "type": "uint256"
        }
      ],
      "stateMutability": "view",
      "type": "function"
    },
    {
      "inputs": [],
      "name": "getMiscData",
      "outputs": [
        {
          "internalType": "int256",
          "name": "logInvariant",
          "type": "int256"
        },
        {
          "internalType": "int256",
          "name": "logTotalSupply",
          "type": "int256"
        },
        {
          "internalType": "uint256",
          "name": "oracleSampleCreationTimestamp",
          "type": "uint256"
        },
        {
          "internalType": "uint256",
          "name": "oracleIndex",
          "type": "uint256"
        },
        {
          "internalType": "bool",
          "name": "oracleEnabled",
          "type": "bool"
        },
        {
          "internalType": "uint256",
          "name": "swapFeePercentage",
          "type": "uint256"
        }
      ],
      "stateMutability": "view",
      "type": "function"
    },
    {
      "inputs": [],
      "name": "getNormalizedWeights",
      "outputs": [
        {
          "internalType": "uint256[]",
          "name": "",
          "type": "uint256[]"
        }
      ],
      "stateMutability": "view",
      "type": "function"
    },
    {
      "inputs": [],
      "name": "getOwner",
      "outputs": [
        {
          "internalType": "address",
          "name": "",
          "type": "address"
        }
      ],
      "stateMutability": "view",
      "type": "function"
    },
    {
      "inputs": [
        {
          "components": [
            {
              "internalType": "enum IPriceOracle.Variable",
              "name": "variable",
              "type": "uint8"
            },
            {
              "internalType": "uint256",
              "name": "ago",
              "type": "uint256"
            }
          ],
          "internalType": "struct IPriceOracle.OracleAccumulatorQuery[]",
          "name": "queries",
          "type": "tuple[]"
        }
      ],
      "name": "getPastAccumulators",
      "outputs": [
        {
          "internalType": "int256[]",
          "name": "results",
          "type": "int256[]"
        }
      ],
      "stateMutability": "view",
      "type": "function"
    },
    {
      "inputs": [],
      "name": "getPausedState",
      "outputs": [
        {
          "internalType": "bool",
          "name": "paused",
          "type": "bool"
        },
        {
          "internalType": "uint256",
          "name": "pauseWindowEndTime",
          "type": "uint256"
        },
        {
          "internalType": "uint256",
          "name": "bufferPeriodEndTime",
          "type": "uint256"
        }
      ],
      "stateMutability": "view",
      "type": "function"
    },
    {
      "inputs": [],
      "name": "getPoolId",
      "outputs": [
        {
          "internalType": "bytes32",
          "name": "",
          "type": "bytes32"
        }
      ],
      "stateMutability": "view",
      "type": "function"
    },
    {
      "inputs": [],
      "name": "getRate",
      "outputs": [
        {
          "internalType": "uint256",
          "name": "",
          "type": "uint256"
        }
      ],
      "stateMutability": "view",
      "type": "function"
    },
    {
      "inputs": [
        {
          "internalType": "uint256",
          "name": "index",
          "type": "uint256"
        }
      ],
      "name": "getSample",
      "outputs": [
        {
          "internalType": "int256",
          "name": "logPairPrice",
          "type": "int256"
        },
        {
          "internalType": "int256",
          "name": "accLogPairPrice",
          "type": "int256"
        },
        {
          "internalType": "int256",
          "name": "logBptPrice",
          "type": "int256"
        },
        {
          "internalType": "int256",
          "name": "accLogBptPrice",
          "type": "int256"
        },
        {
          "internalType": "int256",
          "name": "logInvariant",
          "type": "int256"
        },
        {
          "internalType": "int256",
          "name": "accLogInvariant",
          "type": "int256"
        },
        {
          "internalType": "uint256",
          "name": "timestamp",
          "type": "uint256"
        }
      ],
      "stateMutability": "view",
      "type": "function"
    },
    {
      "inputs": [],
      "name": "getSwapFeePercentage",
      "outputs": [
        {
          "internalType": "uint256",
          "name": "",
          "type": "uint256"
        }
      ],
      "stateMutability": "view",
      "type": "function"
    },
    {
      "inputs": [
        {
          "components": [
            {
              "internalType": "enum IPriceOracle.Variable",
              "name": "variable",
              "type": "uint8"
            },
            {
              "internalType": "uint256",
              "name": "secs",
              "type": "uint256"
            },
            {
              "internalType": "uint256",
              "name": "ago",
              "type": "uint256"
            }
          ],
          "internalType": "struct IPriceOracle.OracleAverageQuery[]",
          "name": "queries",
          "type": "tuple[]"
        }
      ],
      "name": "getTimeWeightedAverage",
      "outputs": [
        {
          "internalType": "uint256[]",
          "name": "results",
          "type": "uint256[]"
        }
      ],
      "stateMutability": "view",
      "type": "function"
    },
    {
      "inputs": [],
      "name": "getTotalSamples",
      "outputs": [
        {
          "internalType": "uint256",
          "name": "",
          "type": "uint256"
        }
      ],
      "stateMutability": "pure",
      "type": "function"
    },
    {
      "inputs": [],
      "name": "getVault",
      "outputs": [
        {
          "internalType": "contract IVault",
          "name": "",
          "type": "address"
        }
      ],
      "stateMutability": "view",
      "type": "function"
    },
    {
      "inputs": [
        {
          "internalType": "address",
          "name": "spender",
          "type": "address"
        },
        {
          "internalType": "uint256",
          "name": "amount",
          "type": "uint256"
        }
      ],
      "name": "increaseApproval",
      "outputs": [
        {
          "internalType": "bool",
          "name": "",
          "type": "bool"
        }
      ],
      "stateMutability": "nonpayable",
      "type": "function"
    },
    {
      "inputs": [],
      "name": "name",
      "outputs": [
        {
          "internalType": "string",
          "name": "",
          "type": "string"
        }
      ],
      "stateMutability": "view",
      "type": "function"
    },
    {
      "inputs": [
        {
          "internalType": "address",
          "name": "owner",
          "type": "address"
        }
      ],
      "name": "nonces",
      "outputs": [
        {
          "internalType": "uint256",
          "name": "",
          "type": "uint256"
        }
      ],
      "stateMutability": "view",
      "type": "function"
    },
    {
      "inputs": [
        {
          "internalType": "bytes32",
          "name": "poolId",
          "type": "bytes32"
        },
        {
          "internalType": "address",
          "name": "sender",
          "type": "address"
        },
        {
          "internalType": "address",
          "name": "recipient",
          "type": "address"
        },
        {
          "internalType": "uint256[]",
          "name": "balances",
          "type": "uint256[]"
        },
        {
          "internalType": "uint256",
          "name": "lastChangeBlock",
          "type": "uint256"
        },
        {
          "internalType": "uint256",
          "name": "protocolSwapFeePercentage",
          "type": "uint256"
        },
        {
          "internalType": "bytes",
          "name": "userData",
          "type": "bytes"
        }
      ],
      "name": "onExitPool",
      "outputs": [
        {
          "internalType": "uint256[]",
          "name": "",
          "type": "uint256[]"
        },
        {
          "internalType": "uint256[]",
          "name": "",
          "type": "uint256[]"
        }
      ],
      "stateMutability": "nonpayable",
      "type": "function"
    },
    {
      "inputs": [
        {
          "internalType": "bytes32",
          "name": "poolId",
          "type": "bytes32"
        },
        {
          "internalType": "address",
          "name": "sender",
          "type": "address"
        },
        {
          "internalType": "address",
          "name": "recipient",
          "type": "address"
        },
        {
          "internalType": "uint256[]",
          "name": "balances",
          "type": "uint256[]"
        },
        {
          "internalType": "uint256",
          "name": "lastChangeBlock",
          "type": "uint256"
        },
        {
          "internalType": "uint256",
          "name": "protocolSwapFeePercentage",
          "type": "uint256"
        },
        {
          "internalType": "bytes",
          "name": "userData",
          "type": "bytes"
        }
      ],
      "name": "onJoinPool",
      "outputs": [
        {
          "internalType": "uint256[]",
          "name": "amountsIn",
          "type": "uint256[]"
        },
        {
          "internalType": "uint256[]",
          "name": "dueProtocolFeeAmounts",
          "type": "uint256[]"
        }
      ],
      "stateMutability": "nonpayable",
      "type": "function"
    },
    {
      "inputs": [
        {
          "components": [
            {
              "internalType": "enum IVault.SwapKind",
              "name": "kind",
              "type": "uint8"
            },
            {
              "internalType": "contract IERC20",
              "name": "tokenIn",
              "type": "address"
            },
            {
              "internalType": "contract IERC20",
              "name": "tokenOut",
              "type": "address"
            },
            {
              "internalType": "uint256",
              "name": "amount",
              "type": "uint256"
            },
            {
              "internalType": "bytes32",
              "name": "poolId",
              "type": "bytes32"
            },
            {
              "internalType": "uint256",
              "name": "lastChangeBlock",
              "type": "uint256"
            },
            {
              "internalType": "address",
              "name": "from",
              "type": "address"
            },
            {
              "internalType": "address",
              "name": "to",
              "type": "address"
            },
            {
              "internalType": "bytes",
              "name": "userData",
              "type": "bytes"
            }
          ],
          "internalType": "struct IPoolSwapStructs.SwapRequest",
          "name": "request",
          "type": "tuple"
        },
        {
          "internalType": "uint256",
          "name": "balanceTokenIn",
          "type": "uint256"
        },
        {
          "internalType": "uint256",
          "name": "balanceTokenOut",
          "type": "uint256"
        }
      ],
      "name": "onSwap",
      "outputs": [
        {
          "internalType": "uint256",
          "name": "",
          "type": "uint256"
        }
      ],
      "stateMutability": "nonpayable",
      "type": "function"
    },
    {
      "inputs": [
        {
          "internalType": "address",
          "name": "owner",
          "type": "address"
        },
        {
          "internalType": "address",
          "name": "spender",
          "type": "address"
        },
        {
          "internalType": "uint256",
          "name": "value",
          "type": "uint256"
        },
        {
          "internalType": "uint256",
          "name": "deadline",
          "type": "uint256"
        },
        {
          "internalType": "uint8",
          "name": "v",
          "type": "uint8"
        },
        {
          "internalType": "bytes32",
          "name": "r",
          "type": "bytes32"
        },
        {
          "internalType": "bytes32",
          "name": "s",
          "type": "bytes32"
        }
      ],
      "name": "permit",
      "outputs": [],
      "stateMutability": "nonpayable",
      "type": "function"
    },
    {
      "inputs": [
        {
          "internalType": "bytes32",
          "name": "poolId",
          "type": "bytes32"
        },
        {
          "internalType": "address",
          "name": "sender",
          "type": "address"
        },
        {
          "internalType": "address",
          "name": "recipient",
          "type": "address"
        },
        {
          "internalType": "uint256[]",
          "name": "balances",
          "type": "uint256[]"
        },
        {
          "internalType": "uint256",
          "name": "lastChangeBlock",
          "type": "uint256"
        },
        {
          "internalType": "uint256",
          "name": "protocolSwapFeePercentage",
          "type": "uint256"
        },
        {
          "internalType": "bytes",
          "name": "userData",
          "type": "bytes"
        }
      ],
      "name": "queryExit",
      "outputs": [
        {
          "internalType": "uint256",
          "name": "bptIn",
          "type": "uint256"
        },
        {
          "internalType": "uint256[]",
          "name": "amountsOut",
          "type": "uint256[]"
        }
      ],
      "stateMutability": "nonpayable",
      "type": "function"
    },
    {
      "inputs": [
        {
          "internalType": "bytes32",
          "name": "poolId",
          "type": "bytes32"
        },
        {
          "internalType": "address",
          "name": "sender",
          "type": "address"
        },
        {
          "internalType": "address",
          "name": "recipient",
          "type": "address"
        },
        {
          "internalType": "uint256[]",
          "name": "balances",
          "type": "uint256[]"
        },
        {
          "internalType": "uint256",
          "name": "lastChangeBlock",
          "type": "uint256"
        },
        {
          "internalType": "uint256",
          "name": "protocolSwapFeePercentage",
          "type": "uint256"
        },
        {
          "internalType": "bytes",
          "name": "userData",
          "type": "bytes"
        }
      ],
      "name": "queryJoin",
      "outputs": [
        {
          "internalType": "uint256",
          "name": "bptOut",
          "type": "uint256"
        },
        {
          "internalType": "uint256[]",
          "name": "amountsIn",
          "type": "uint256[]"
        }
      ],
      "stateMutability": "nonpayable",
      "type": "function"
    },
    {
      "inputs": [
        {
          "internalType": "bool",
          "name": "paused",
          "type": "bool"
        }
      ],
      "name": "setPaused",
      "outputs": [],
      "stateMutability": "nonpayable",
      "type": "function"
    },
    {
      "inputs": [
        {
          "internalType": "uint256",
          "name": "swapFeePercentage",
          "type": "uint256"
        }
      ],
      "name": "setSwapFeePercentage",
      "outputs": [],
      "stateMutability": "nonpayable",
      "type": "function"
    },
    {
      "inputs": [],
      "name": "symbol",
      "outputs": [
        {
          "internalType": "string",
          "name": "",
          "type": "string"
        }
      ],
      "stateMutability": "view",
      "type": "function"
    },
    {
      "inputs": [],
      "name": "totalSupply",
      "outputs": [
        {
          "internalType": "uint256",
          "name": "",
          "type": "uint256"
        }
      ],
      "stateMutability": "view",
      "type": "function"
    },
    {
      "inputs": [
        {
          "internalType": "address",
          "name": "recipient",
          "type": "address"
        },
        {
          "internalType": "uint256",
          "name": "amount",
          "type": "uint256"
        }
      ],
      "name": "transfer",
      "outputs": [
        {
          "internalType": "bool",
          "name": "",
          "type": "bool"
        }
      ],
      "stateMutability": "nonpayable",
      "type": "function"
    },
    {
      "inputs": [
        {
          "internalType": "address",
          "name": "sender",
          "type": "address"
        },
        {
          "internalType": "address",
          "name": "recipient",
          "type": "address"
        },
        {
          "internalType": "uint256",
          "name": "amount",
          "type": "uint256"
        }
      ],
      "name": "transferFrom",
      "outputs": [
        {
          "internalType": "bool",
          "name": "",
          "type": "bool"
        }
      ],
      "stateMutability": "nonpayable",
      "type": "function"
    }
  ],
  "bytecode": {
    "object": "0x6102a06040527f6e71edae12b1b97f4d1f60370fef10105fa2faae0126114a169c64845d6126c9610120523480156200003757600080fd5b50604051620056e2380380620056e28339810160408190526200005a9162000818565b61010081810151610120830151602080850151604080870151815180830190925260018252603160f81b8285019081526101608901513360805260601b6001600160601b03191660a052835194840194852060c052915190912060e0527f8b73c3c69bb8fe3d512ecc4cf759cc79239f7b179b0ffacaa9a75d522b39400f909552805193949293909291620000f39160039190620006a1565b50805162000109906004906020840190620006a1565b50620001219150506276a7008311156101946200040c565b6200013562278d008211156101956200040c565b42909101610140818152910161016052810151620001539062000421565b60e081015162000163906200047d565b80516040516309b2760f60e01b81526000916001600160a01b0316906309b2760f90620001969060029060040162000a17565b602060405180830381600087803b158015620001b157600080fd5b505af1158015620001c6573d6000803e3d6000fd5b505050506040513d601f19601f82011682018060405250810190620001ec9190620007ff565b60408051600280825260608201835292935060009290916020830190803683370190505090508260600151816000815181106200022557fe5b60200260200101906001600160a01b031690816001600160a01b0316815250508260800151816001815181106200025857fe5b6001600160a01b0392831660209182029290920101528351166366a9c7d283836002604051908082528060200260200182016040528015620002a4578160200160208202803683370190505b506040518463ffffffff1660e01b8152600401620002c5939291906200097d565b600060405180830381600087803b158015620002e057600080fd5b505af1158015620002f5573d6000803e3d6000fd5b505084516001600160601b0319606091821b8116610180526101a08690528187018051831b82166101c052608088015190921b166101e052516200033c92509050620004fb565b6102605260808301516200035090620004fb565b6102805260a08301516200037190662386f26fc10000111561012e6200040c565b62000393662386f26fc100008460c00151101561012e6200040c60201b60201c565b6000620003b78460c001518560a001516200059f60201b620011f31790919060201c565b9050620003d1670de0b6b3a764000082146101346200040c565b60a0840180516102005260c085018051610220525190511015620003f7576001620003fa565b60005b60ff16610240525062000a5992505050565b816200041d576200041d81620005ba565b5050565b6200043d816008546200060d60201b620012051790919060201c565b6008556040517f3e350b41e86a8e10f804ade6d35340d620be35569cc75ac943e8bb14ab80ead1906200047290839062000972565b60405180910390a150565b6200049264e8d4a5100082101560cb6200040c565b620004aa67016345785d8a000082111560ca6200040c565b620004c6816008546200062c60201b620012131790919060201c565b6008556040517fa9ba3ffe0b6c366b81232caab38605a0699ad5398d6cce76f91ee809e322dafc906200047290839062000a2c565b600080826001600160a01b031663313ce5676040518163ffffffff1660e01b815260040160206040518083038186803b1580156200053857600080fd5b505afa1580156200054d573d6000803e3d6000fd5b505050506040513d601f19601f820116820180604052508101906200057391906200094f565b60ff1690506000620005926012836200064b60201b620012211760201c565b600a0a925050505b919050565b6000828201620005b384821015836200040c565b9392505050565b62461bcd60e51b6000908152602060045260076024526642414c23000030600a808404818106603090810160081b95839006959095019082900491820690940160101b939093010160c81b604452606490fd5b6000620005b3826055856200066360201b62001237179092919060201c565b6000620005b3826056856200068c60201b6200125e179092919060201c565b60006200065d8383111560016200040c565b50900390565b60006001821b19841682846200067b5760006200067e565b60015b60ff16901b17949350505050565b6001600160401b03811b1992909216911b1790565b828054600181600116156101000203166002900490600052602060002090601f016020900481019282620006d9576000855562000724565b82601f10620006f457805160ff191683800117855562000724565b8280016001018555821562000724579182015b828111156200072457825182559160200191906001019062000707565b506200073292915062000736565b5090565b5b8082111562000732576000815560010162000737565b80516001600160a01b03811681146200059a57600080fd5b805180151581146200059a57600080fd5b600082601f83011262000787578081fd5b81516001600160401b038111156200079b57fe5b6020620007b1601f8301601f1916820162000a35565b8281528582848701011115620007c5578384fd5b835b83811015620007e4578581018301518282018401528201620007c7565b83811115620007f557848385840101525b5095945050505050565b60006020828403121562000811578081fd5b5051919050565b6000602082840312156200082a578081fd5b81516001600160401b038082111562000841578283fd5b818401915061018080838703121562000858578384fd5b620008638162000a35565b905062000870836200074d565b815260208301518281111562000884578485fd5b620008928782860162000776565b602083015250604083015182811115620008aa578485fd5b620008b88782860162000776565b604083015250620008cc606084016200074d565b6060820152620008df608084016200074d565b608082015260a0838101519082015260c0808401519082015260e080840151908201526101008084015190820152610120808401519082015261014091506200092a82840162000765565b828201526101609150620009408284016200074d565b91810191909152949350505050565b60006020828403121562000961578081fd5b815160ff81168114620005b3578182fd5b901515815260200190565b60006060820185835260206060818501528186518084526080860191508288019350845b81811015620009c85784516001600160a01b031683529383019391830191600101620009a1565b505084810360408601528551808252908201925081860190845b8181101562000a095782516001600160a01b031685529383019391830191600101620009e2565b509298975050505050505050565b602081016003831062000a2657fe5b91905290565b90815260200190565b6040518181016001600160401b038111828210171562000a5157fe5b604052919050565b60805160a05160601c60c05160e051610100516101205161014051610160516101805160601c6101a0516101c05160601c6101e05160601c6102005161022051610240516102605161028051614bb162000b3160003980611d64525080611d8b525080612a7a5280612aae5280612aea525080611db85280611e54525080611ddf5280611e325280611e8252505080610c71525080610808525080610bbf5250806113c252508061139e525080610f205250806116d05250806117125250806116f1525080610b9b525080610b215250614bb16000f3fe608060405234801561001057600080fd5b50600436106102485760003560e01c806374f3b0091161013b578063aaabadc5116100b8578063d5c096c41161007c578063d5c096c4146104e1578063d73dd623146104f4578063dd62ed3e14610507578063f89f27ed1461051a578063ffd088eb1461052257610248565b8063aaabadc5146104a3578063b10be739146104ab578063b48b5b40146104be578063c0ff1a15146104c6578063d505accf146104ce57610248565b80638d928af8116100ff5780638d928af81461046557806395d89b411461046d5780639b02cdde146104755780639d2c110c1461047d578063a9059cbb1461049057610248565b806374f3b009146103f65780637ecebe0014610417578063851c1bb31461042a57806387ec68171461043d578063893d20e81461045057610248565b806338e9922e116101c957806360d1507c1161018d57806360d1507c1461038257806366188463146103a8578063679aefce146103bb5780636b843239146103c357806370a08231146103e357610248565b806338e9922e1461032457806338fff2d0146103375780634a6b0b151461033f57806355c67628146103595780636028bfd41461036157610248565b80631dccd830116102105780631dccd830146102cc57806323b872dd146102ec578063292c914a146102ff578063313ce567146103075780633644e5151461031c57610248565b806306fdde031461024d578063095ea7b31461026b57806316c38b3c1461028b57806318160ddd146102a05780631c0de051146102b5575b600080fd5b61025561052a565b6040516102629190614aac565b60405180910390f35b61027e610279366004614434565b6105c0565b6040516102629190614a26565b61029e6102993660046146c4565b6105d7565b005b6102a86105eb565b6040516102629190614a49565b6102bd6105f1565b60405161026293929190614a31565b6102df6102da3660046145f8565b61061a565b60405161026291906149ee565b61027e6102fa36600461437f565b610722565b61029e6107a5565b61030f6107d9565b6040516102629190614b18565b6102a86107de565b61029e610332366004614934565b6107ed565b6102a8610806565b61034761082a565b60405161026296959493929190614a82565b6102a8610885565b61037461036f3660046146e4565b610892565b604051610262929190614aff565b610395610390366004614934565b6108c3565b6040516102629796959493929190614a52565b61027e6103b6366004614434565b61090c565b6102a8610966565b6103d66103d136600461452a565b61098b565b60405161026291906149aa565b6102a86103f136600461432b565b610a3c565b6104096104043660046146e4565b610a5b565b604051610262929190614a01565b6102a861042536600461432b565b610b00565b6102a86104383660046147e0565b610b1b565b61037461044b3660046146e4565b610b74565b610458610b99565b6040516102629190614996565b610458610bbd565b610255610be1565b6102a8610c42565b6102a861048b36600461483e565b610c48565b61027e61049e366004614434565b610df7565b610458610e04565b6102a86104b9366004614824565b610e0e565b6102a8610e30565b6102a8610e36565b61029e6104dc3660046143bf565b610ef1565b6104096104ef3660046146e4565b611061565b61027e610502366004614434565b611181565b6102a8610515366004614347565b6111b7565b6102df6111e2565b6102a86111ec565b60038054604080516020601f60026000196101006001881615020190951694909404938401819004810282018101909252828152606093909290918301828280156105b65780601f1061058b576101008083540402835291602001916105b6565b820191906000526020600020905b81548152906001019060200180831161059957829003601f168201915b5050505050905090565b60006105cd338484611273565b5060015b92915050565b6105df6112d5565b6105e881611303565b50565b60025490565b60008060006105fe61137f565b15925061060961139c565b91506106136113c0565b9050909192565b606081516001600160401b038111801561063357600080fd5b5060405190808252806020026020018201604052801561065d578160200160208202803683370190505b509050600061066d6008546113e4565b90506106776141f9565b60005b845181101561071a5784818151811061068f57fe5b602002602001015191506106ad82602001516000141561013c6113f1565b60006106c88360000151858560200151866040015101611403565b905060006106df8460000151868660400151611403565b90506106f98460200151838303816106f357fe5b05611549565b86848151811061070557fe5b6020908102919091010152505060010161067a565b505050919050565b6001600160a01b038316600081815260016020908152604080832033808552925282205491926107609114806107585750838210155b6101976113f1565b61076b85858561155c565b336001600160a01b0386161480159061078657506000198114155b15610798576107988533858403611273565b60019150505b9392505050565b6107ad611626565b6107b56112d5565b6107bf6001611639565b60006107c96105eb565b11156107d7576107d7611684565b565b601290565b60006107e86116cc565b905090565b6107f56112d5565b6107fd611626565b6105e88161178a565b7f000000000000000000000000000000000000000000000000000000000000000090565b60008060008060008060006008549050610843816117f3565b965061084e816117ff565b95506108598161180c565b9450610864816113e4565b935061086f81611819565b925061087a81611826565b915050909192939495565b60006107e8600854611826565b600060606108a286516002611833565b6108b7898989898989896118406118fa611978565b97509795505050505050565b60008060008060008060006108de610400891061013b6113f1565b60006108e989611a96565b90506108f481611aa8565b959f949e50929c50909a509850965090945092505050565b3360009081526001602090815260408083206001600160a01b03861684529091528120548083106109485761094333856000611273565b61095c565b61095c33856109578487611221565b611273565b5060019392505050565b60006107e86109736105eb565b61098561097e610e36565b6002611b0b565b90611b2f565b606081516001600160401b03811180156109a457600080fd5b506040519080825280602002602001820160405280156109ce578160200160208202803683370190505b50905060006109de6008546113e4565b90506109e861421b565b60005b845181101561071a57848181518110610a0057fe5b60200260200101519150610a1d8260000151848460200151611403565b848281518110610a2957fe5b60209081029190910101526001016109eb565b6001600160a01b0381166000908152602081905260409020545b919050565b60608088610a85610a6a610bbd565b6001600160a01b0316336001600160a01b03161460cd6113f1565b610a9a610a90610806565b82146101f46113f1565b610aa387611b80565b6000806000610ab78d8d8d8d8d8d8d611840565b925092509250610ac78c84611be2565b610ad0826118fa565b610ad9816118fa565b610ae161137f565b15610aee57610aee611684565b909c909b509950505050505050505050565b6001600160a01b031660009081526005602052604090205490565b604080517f00000000000000000000000000000000000000000000000000000000000000006020808301919091526001600160e01b03198416828401528251602481840301815260449092019092528051910120919050565b60006060610b8486516002611833565b6108b789898989898989611c7d611cfd611978565b7f000000000000000000000000000000000000000000000000000000000000000090565b7f000000000000000000000000000000000000000000000000000000000000000090565b60048054604080516020601f60026000196101006001881615020190951694909404938401819004810282018101909252828152606093909290918301828280156105b65780601f1061058b576101008083540402835291602001916105b6565b60095490565b6000610c52611626565b8360800151610c62610a6a610bbd565b610c6d610a90610806565b60007f00000000000000000000000000000000000000000000000000000000000000006001600160a01b031686602001516001600160a01b03161490506000610cb582611d5b565b90506000610cc38315611d5b565b90506000610cd084611daf565b90506000610cde8515611daf565b9050610cea8985611e03565b9850610cf68884611e03565b9750610d1f8a60a0015186610d0b5789610d0d565b8a5b87610d18578b610d1a565b8a5b611e0f565b60008a516001811115610d2e57fe5b1415610d9c576000610d4c610d41610885565b60608d015190611f15565b9050610d6e610d68828d6060015161122190919063ffffffff16565b86611e03565b60608c01526000610d828c8c8c8787611f59565b9050610d8e8186611f78565b985050505050505050610def565b610daa8a6060015184611e03565b60608b01526000610dbe8b8b8b8686611f84565b9050610dca8186611f97565b9050610de6610ddf610dda610885565b611fa3565b8290611fc9565b97505050505050505b509392505050565b60006105cd33848461155c565b60006107e861200b565b600080610e2583610e206008546113e4565b612085565b905061079e81611549565b61040090565b600080610e41610bbd565b6001600160a01b031663f94d4668610e57610806565b6040518263ffffffff1660e01b8152600401610e739190614a49565b60006040518083038186803b158015610e8b57600080fd5b505afa158015610e9f573d6000803e3d6000fd5b505050506040513d6000823e601f3d908101601f19168201604052610ec7919081019061445f565b50915050610ed481611b80565b6000610ede6120bc565b9050610eea818361212b565b9250505090565b610eff8442111560d16113f1565b6001600160a01b0380881660008181526005602090815260408083205481517f00000000000000000000000000000000000000000000000000000000000000008185015280830195909552948b166060850152608084018a905260a0840185905260c08085018a90528151808603909101815260e09094019052825192019190912090610f8b8261219d565b9050600060018288888860405160008152602001604052604051808581526020018460ff1681526020018381526020018281526020019450505050506020604051602081039080840390855afa158015610fe9573d6000803e3d6000fd5b5050604051601f190151915061102b90506001600160a01b0382161580159061102357508b6001600160a01b0316826001600160a01b0316145b6101f86113f1565b6001600160a01b038b1660009081526005602052604090206001850190556110548b8b8b611273565b5050505050505050505050565b60608088611070610a6a610bbd565b61107b610a90610806565b611083611626565b600061108d6105eb565b6110fd5761109d8b8b8b886121e9565b945090506110b2620f424082101560cc6113f1565b6110c06000620f4240612272565b6110cf89620f42408303612272565b6110d884611cfd565b604080516002808252606082018352909160208301908036833701905050925061116b565b61110688611b80565b611139878960008151811061111757fe5b60200260200101518a60018151811061112c57fe5b6020026020010151611e0f565b6111488b8b8b8b8b8b8b611c7d565b909550935090506111598982612272565b61116284611cfd565b61116b836118fa565b611173611684565b505097509795505050505050565b3360008181526001602090815260408083206001600160a01b038716845290915281205490916105cd91859061095790866111f3565b6001600160a01b03918216600090815260016020908152604080832093909416825291909152205490565b60606107e86120bc565b6201de2090565b600082820161079e84821015836113f1565b600061079e83836055611237565b600061079e8383605661125e565b60006112318383111560016113f1565b50900390565b60006001821b198416828461124d576000611250565b60015b60ff16901b17949350505050565b6001600160401b03811b1992909216911b1790565b6001600160a01b03808416600081815260016020908152604080832094871680845294825291829020859055815185815291517f8c5be1e5ebec7d5bd14f71427d1e84f3dd0314c0f7b2291e5b200ac8c7c3b9259281900390910190a3505050565b60006112ec6000356001600160e01b031916610b1b565b90506105e86112fb8233612303565b6101916113f1565b80156113235761131e61131461139c565b42106101936113f1565b611338565b61133861132e6113c0565b42106101a96113f1565b6006805482151560ff19909116811790915560408051918252517f9e3a5e37224532dea67b89face185703738a228a6e8a23dee546960180d3be649181900360200190a150565b60006113896113c0565b4211806107e857505060065460ff161590565b7f000000000000000000000000000000000000000000000000000000000000000090565b7f000000000000000000000000000000000000000000000000000000000000000090565b60006105d182604b612405565b816113ff576113ff8161240d565b5050565b6000611414824210156101386113f1565b42829003600061142385611a96565b9050600061143082612460565b9050611441600082116101396113f1565b82811161146d5780830380611456848a61246c565b02611461848a6124b7565b0194505050505061079e565b6000611478876124fb565b9050600061148582611a96565b9050600061149282612460565b90506114a3600082116101396113f1565b6114b28682111561013a6113f1565b50506000806114c18684612508565b9150915060006114d083612460565b6114d983612460565b03905080156115315760006114ee848d6124b7565b6114f8848e6124b7565b039050600061150685612460565b89039050828183028161151557fe5b05611520868f6124b7565b01995050505050505050505061079e565b61153b838c6124b7565b97505050505050505061079e565b60006105d1655af3107a400083026125bb565b6001600160a01b038316600090815260208190526040902054611584828210156101966113f1565b61159b6001600160a01b03841615156101996113f1565b6001600160a01b038085166000908152602081905260408082208585039055918516815220546115cb90836111f3565b6001600160a01b038085166000818152602081815260409182902094909455805186815290519193928816927fddf252ad1be2c89b69c2b068fc378daa952ba7f163c4a11628f55a4df523b3ef92918290030190a350505050565b6107d761163161137f565b6101926113f1565b6008546116469082611205565b6008556040517f3e350b41e86a8e10f804ade6d35340d620be35569cc75ac943e8bb14ab80ead190611679908390614a26565b60405180910390a150565b60085461169081611819565b156105e8576116aa6116a3600954612998565b82906129dc565b90506116c66116bf6116ba6105eb565b612998565b82906129e9565b60085550565b60007f00000000000000000000000000000000000000000000000000000000000000007f00000000000000000000000000000000000000000000000000000000000000007f00000000000000000000000000000000000000000000000000000000000000006117396129f7565b3060405160200180868152602001858152602001848152602001838152602001826001600160a01b031681526020019550505050505060405160208183030381529060405280519060200120905090565b61179d64e8d4a5100082101560cb6113f1565b6117b367016345785d8a000082111560ca6113f1565b6008546117c09082611213565b6008556040517fa9ba3ffe0b6c366b81232caab38605a0699ad5398d6cce76f91ee809e322dafc90611679908390614a49565b60006105d182826129fb565b60006105d18260166129fb565b60006105d182602c612a22565b60006105d1826055612a2c565b60006105d1826056612a36565b6113ff81831460676113f1565b6000606080600061184f6120bc565b905061185961137f565b156118a15761186f878960008151811061111757fe5b600061187b828a61212b565b905061188c8983600954848b612a43565b925061189b8984611221612b28565b506118c2565b60408051600280825260608201835290916020830190803683370190505091505b6118cd888287612bba565b90945092506118df8884611221612b28565b6118e9818961212b565b600955509750975097945050505050565b6119218160008151811061190a57fe5b602002602001015161191c6001611d5b565b612c27565b8160008151811061192e57fe5b60200260200101818152505061195c8160018151811061194a57fe5b602002602001015161191c6000611d5b565b8160018151811061196957fe5b60200260200101818152505050565b333014611a36576000306001600160a01b031660003660405161199c929190614986565b6000604051808303816000865af19150503d80600081146119d9576040519150601f19603f3d011682016040523d82523d6000602084013e6119de565b606091505b5050905080600081146119ed57fe5b60046000803e6000516001600160e01b0319166343adbafb60e01b8114611a18573d6000803e3d6000fd5b506020600460003e604060205260243d03602460403e601c3d016000f35b611a3f86611b80565b600080611a558b8b8b8b8b8b8b8b63ffffffff16565b5091509150611a67818463ffffffff16565b8051601f1982018390526343adbafb603f1983015260200260231982016044820181fd5b505050505050505050565b60009081526007602052604090205490565b6000806000806000806000611abc88612c47565b9650611ac788612c54565b9550611ad288612c61565b9450611add88612c6e565b9350611ae888612c7b565b9250611af388612c88565b9150611afe88612460565b9050919395979092949650565b600082820261079e841580611b28575083858381611b2557fe5b04145b60036113f1565b6000611b3e82151560046113f1565b82611b4b575060006105d1565b670de0b6b3a764000083810290611b6e90858381611b6557fe5b041460056113f1565b828181611b7757fe5b049150506105d1565b611ba781600081518110611b9057fe5b6020026020010151611ba26001611d5b565b611b0b565b81600081518110611bb457fe5b60200260200101818152505061195c81600181518110611bd057fe5b6020026020010151611ba26000611d5b565b6001600160a01b038216600090815260208190526040902054611c0a828210156101966113f1565b6001600160a01b03831660009081526020819052604090208282039055600254611c349083611221565b6002556040805183815290516000916001600160a01b038616917fddf252ad1be2c89b69c2b068fc378daa952ba7f163c4a11628f55a4df523b3ef9181900360200190a3505050565b60006060806000611c8c6120bc565b90506000611c9a828a61212b565b90506000611cad8a84600954858c612a43565b9050611cbc8a82611221612b28565b600080611cca8c868b612c95565b91509150611cdb8c826111f3612b28565b611ce5858d61212b565b600955909e909d50909b509950505050505050505050565b611d2481600081518110611d0d57fe5b6020026020010151611d1f6001611d5b565b612cef565b81600081518110611d3157fe5b60200260200101818152505061195c81600181518110611d4d57fe5b6020026020010151611d1f60005b600081611d88577f00000000000000000000000000000000000000000000000000000000000000006105d1565b507f0000000000000000000000000000000000000000000000000000000000000000919050565b600081611ddc577f00000000000000000000000000000000000000000000000000000000000000006105d1565b507f0000000000000000000000000000000000000000000000000000000000000000919050565b600061079e8383611b0b565b600854611e1b81611819565b8015611e2657508343115b15611f0f576000611e797f0000000000000000000000000000000000000000000000000000000000000000857f000000000000000000000000000000000000000000000000000000000000000086612d22565b90506000611eb07f000000000000000000000000000000000000000000000000000000000000000086611eab866117ff565b612d57565b90506000611ebd846113e4565b90506000611eca8561180c565b90506000611ee382848787611ede8b6117f3565b612d73565b9050808314611a8b57611ef68682612dca565b9550611f028642612dd8565b6008819055955050505050505b50505050565b6000828202611f2f841580611b28575083858381611b2557fe5b80611f3e5760009150506105d1565b670de0b6b3a764000060001982015b046001019150506105d1565b6000611f6c858486858a60600151612de6565b90505b95945050505050565b600061079e8383612c27565b6000611f6c858486858a60600151612e61565b600061079e8383612cef565b6000670de0b6b3a76400008210611fbb5760006105d1565b50670de0b6b3a76400000390565b6000611fd882151560046113f1565b82611fe5575060006105d1565b670de0b6b3a764000083810290611fff90858381611b6557fe5b826001820381611f4d57fe5b6000612015610bbd565b6001600160a01b031663aaabadc56040518163ffffffff1660e01b815260040160206040518083038186803b15801561204d57600080fd5b505afa158015612061573d6000803e3d6000fd5b505050506040513d601f19601f820116820180604052508101906107e89190614808565b60008061209183611a96565b90506120aa60006120a183612460565b116101396113f1565b6120b4818561246c565b949350505050565b604080516002808252606080830184529260009291906020830190803683370190505090506120eb6001611daf565b816000815181106120f857fe5b60200260200101818152505061210e6000611daf565b8160018151811061211b57fe5b6020908102919091010152905090565b670de0b6b3a764000060005b835181101561218d5761218361217c85838151811061215257fe5b602002602001015185848151811061216657fe5b6020026020010151612ed790919063ffffffff16565b8390612f26565b9150600101612137565b506105d1600082116101376113f1565b60006121a76116cc565b82604051602001808061190160f01b81525060020183815260200182815260200192505050604051602081830303815290604052805190602001209050919050565b6000606060006121f884612f52565b9050612213600082600281111561220b57fe5b1460ce6113f1565b600061221e85612f71565b905061222c81516002611833565b61223581611b80565b600061223f6120bc565b9050600061224d828461212b565b9050600061225c826002611b0b565b6009929092555099919850909650505050505050565b6001600160a01b03821660009081526020819052604090205461229590826111f3565b6001600160a01b0383166000908152602081905260409020556002546122bb90826111f3565b6002556040805182815290516001600160a01b038416916000917fddf252ad1be2c89b69c2b068fc378daa952ba7f163c4a11628f55a4df523b3ef9181900360200190a35050565b600073ba1ba1ba1ba1ba1ba1ba1ba1ba1ba1ba1ba1ba1b612322610b99565b6001600160a01b03161415801561233d575061233d83613025565b156123655761234a610b99565b6001600160a01b0316336001600160a01b03161490506105d1565b61236d61200b565b6001600160a01b0316639be2a8848484306040518463ffffffff1660e01b815260040180848152602001836001600160a01b03168152602001826001600160a01b03168152602001935050505060206040518083038186803b1580156123d257600080fd5b505afa1580156123e6573d6000803e3d6000fd5b505050506040513d60208110156123fc57600080fd5b505190506105d1565b1c6103ff1690565b62461bcd60e51b6000908152602060045260076024526642414c23000030600a808404818106603090810160081b95839006959095019082900491820690940160101b939093010160c81b604452606490fd5b60006105d18282612a22565b60008082600281111561247b57fe5b14156124915761248a83612c47565b90506105d1565b600182600281111561249f57fe5b14156124ae5761248a83612c61565b61248a83612c7b565b6000808260028111156124c657fe5b14156124d55761248a83612c54565b60018260028111156124e357fe5b14156124f25761248a83612c6e565b61248a83612c88565b60006105d182600161303f565b600080806103ff8180805b83851161257f5760028585010461252a818a61303f565b935061253584611a96565b925061254083612460565b91508982101561255557806001019550612579565b8982111561256857600181039450612579565b8283975097505050505050506125b4565b50612513565b88811061259d5761259761259284613050565b611a96565b826125aa565b816125aa612592856124fb565b9650965050505050505b9250929050565b60006125ea680238fd42c5cf03ffff1983121580156125e3575068070c1cc73b00c800008313155b60096113f1565b600082121561261d576125ff826000036125bb565b6a0c097ce7bc90715b34b9f160241b8161261557fe5b059050610a56565b60006806f05b59d3b2000000831261265d57506806f05b59d3b1ffffff1990910190770195e54c5dd42177f53a27172fa9ec630262827000000000612693565b6803782dace9d9000000831261268f57506803782dace9d8ffffff19909101906b1425982cf597cd205cef7380612693565b5060015b6064929092029168056bc75e2d6310000068ad78ebc5ac6200000084126126e35768ad78ebc5ac61ffffff199093019268056bc75e2d631000006e01855144814a7ff805980ff008400082020590505b6856bc75e2d631000000841261271f576856bc75e2d630ffffff199093019268056bc75e2d631000006b02df0ab5a80a22c61ab5a70082020590505b682b5e3af16b18800000841261275957682b5e3af16b187fffff199093019268056bc75e2d63100000693f1fce3da636ea5cf85082020590505b6815af1d78b58c4000008412612793576815af1d78b58c3fffff199093019268056bc75e2d63100000690127fa27722cc06cc5e282020590505b680ad78ebc5ac620000084126127cc57680ad78ebc5ac61fffff199093019268056bc75e2d6310000068280e60114edb805d0382020590505b68056bc75e2d6310000084126128055768056bc75e2d630fffff199093019268056bc75e2d63100000680ebc5fb4174612111082020590505b6802b5e3af16b1880000841261283e576802b5e3af16b187ffff199093019268056bc75e2d631000006808f00f760a4b2db55d82020590505b68015af1d78b58c4000084126128775768015af1d78b58c3ffff199093019268056bc75e2d631000006806f5f177578893793782020590505b68056bc75e2d631000008481019085906002908280020505918201919050600368056bc75e2d631000008783020505918201919050600468056bc75e2d631000008783020505918201919050600568056bc75e2d631000008783020505918201919050600668056bc75e2d631000008783020505918201919050600768056bc75e2d631000008783020505918201919050600868056bc75e2d631000008783020505918201919050600968056bc75e2d631000008783020505918201919050600a68056bc75e2d631000008783020505918201919050600b68056bc75e2d631000008783020505918201919050600c68056bc75e2d631000008783020505918201919050606468056bc75e2d63100000848402058502059695505050505050565b6000806129a48361305d565b9050655af3107a4000600082136129c357652d79883d200082036129cd565b652d79883d200082015b816129d457fe5b059392505050565b600061079e8383836130b9565b600061079e838360166130b9565b4690565b600082821c623fffff16621fffff8113612a1557806120b4565b623fffff19179392505050565b1c637fffffff1690565b1c60019081161490565b1c6001600160401b031690565b6040805160028082526060808301845292600092919060208301908036833701905050905082612a74579050611f6f565b612ae7877f000000000000000000000000000000000000000000000000000000000000000081518110612aa357fe5b6020026020010151877f000000000000000000000000000000000000000000000000000000000000000081518110612ad757fe5b60200260200101518787876130d0565b817f000000000000000000000000000000000000000000000000000000000000000081518110612b1357fe5b60209081029190910101529695505050505050565b612b5e83600081518110612b3857fe5b602002602001015183600081518110612b4d57fe5b60200260200101518363ffffffff16565b83600081518110612b6b57fe5b602002602001018181525050612b9c83600181518110612b8757fe5b602002602001015183600181518110612b4d57fe5b83600181518110612ba957fe5b602002602001018181525050505050565b600060606000612bc984612f52565b90506000816002811115612bd957fe5b1415612bf457612bea868686613148565b9250925050612c1f565b6001816002811115612c0257fe5b1415612c1257612bea86856131f9565b612bea86868661322b565b505b935093915050565b6000612c3682151560046113f1565b818381612c3f57fe5b049392505050565b60006105d18260ea6129fb565b60006105d18260b5613296565b60006105d182609f6129fb565b60006105d182606a613296565b60006105d18260546129fb565b60006105d182601f613296565b600060606000612ca484612f52565b90506001816002811115612cb457fe5b1415612cc557612bea8686866132c9565b6002816002811115612cd357fe5b1415612ce457612bea86868661331f565b612c1d61013661240d565b6000612cfe82151560046113f1565b82612d0b575060006105d1565b816001840381612d1757fe5b0460010190506105d1565b600080612d42612d328486611fc9565b612d3c8789611fc9565b90611fc9565b9050612d4d81612998565b9695505050505050565b600080612d676116ba8587611fc9565b92909203949350505050565b600080612d8f85858542612d868b611a96565b939291906133a3565b9050607842889003101580612da45786612dad565b612dad876124fb565b600081815260076020526040902092909255509695505050505050565b600061079e8383604b6133f5565b600061079e8383602c613405565b6000612e08612dfd87670429d069189e0000612f26565b8311156101306113f1565b6000612e1487846111f3565b90506000612e228883611fc9565b90506000612e308887611b2f565b90506000612e3e8383613417565b9050612e53612e4c82611fa3565b8990612f26565b9a9950505050505050505050565b6000612e83612e7885670429d069189e0000612f26565b8311156101316113f1565b6000612e99612e928685611221565b8690611fc9565b90506000612ea78588611fc9565b90506000612eb58383613417565b90506000612ecb82670de0b6b3a7640000611221565b9050612e538a82611f15565b600080612ee48484613443565b90506000612efe612ef783612710611f15565b60016111f3565b905080821015612f13576000925050506105d1565b612f1d8282611221565b925050506105d1565b6000828202612f40841580611b28575083858381611b2557fe5b670de0b6b3a764000090049392505050565b6000818060200190516020811015612f6957600080fd5b505192915050565b6060818060200190516040811015612f8857600080fd5b815160208301805160405192949293830192919084640100000000821115612faf57600080fd5b908301906020820185811115612fc457600080fd5b8251866020820283011164010000000082111715612fe157600080fd5b82525081516020918201928201910280838360005b8381101561300e578181015183820152602001612ff6565b505050509190910160405250929695505050505050565b6000613037631c74c91760e11b610b1b565b909114919050565b60006104008383015b069392505050565b60006105d1826001613544565b600061306d6000831360646113f1565b670c7d713b49da00008213801561308b5750670f43fc2c04ee000082125b156130a957670de0b6b3a76400006130a283613553565b8161261557fe5b6130b282613671565b9050610a56565b623fffff828116821b90821b198416179392505050565b60008383116130e157506000611f6f565b60006130ed8585611fc9565b90506000613103670de0b6b3a764000088611b2f565b9050613117826709b6e64a8ec60000613a10565b915060006131258383613417565b9050600061313c61313583611fa3565b8b90612f26565b9050612e538187612f26565b60006060613154611626565b60008061316085613a27565b915091506131726002821060646113f1565b6040805160028082526060820183526000926020830190803683370190505090506131d48883815181106131a257fe5b60200260200101518884815181106131b657fe5b6020026020010151856131c76105eb565b6131cf610885565b613a55565b8183815181106131e057fe5b6020908102919091010152919791965090945050505050565b60006060600061320884613b0c565b9050600061321e86836132196105eb565b613b2e565b9196919550909350505050565b60006060613237611626565b60008061324385613bdf565b9150915061325382516002611833565b61325c82611b80565b600061327988888561326c6105eb565b613274610885565b613c9c565b90506132898282111560cf6113f1565b9791965090945050505050565b600082821c661fffffffffffff16660fffffffffffff81136132b857806120b4565b661fffffffffffff19179392505050565b600060606000806132d985613bdf565b915091506132e982516002611833565b6132f282611b80565b600061330f8888856133026105eb565b61330a610885565b613ec6565b90506132898282101560d06113f1565b6000606060008061332f85613a27565b915091506133416002821060646113f1565b6040805160028082526060820183526000926020830190803683370190505090506131d488838151811061337157fe5b602002602001015188848151811061338557fe5b6020026020010151856133966105eb565b61339e610885565b6140d5565b6000806133af87612460565b8303905060008187026133c189612c54565b01905060008287026133d28a612c6e565b01905060008387026133e38b612c88565b019050612e5389848a858b868c614177565b6103ff811b1992909216911b1790565b637fffffff811b1992909216911b1790565b6000806134248484613443565b90506000613437612ef783612710611f15565b9050611f6f82826111f3565b6000816134595750670de0b6b3a76400006105d1565b82613466575060006105d1565b613477600160ff1b841060066113f1565b8261349d770bce5086492111aea88f4bb1ca6bcf584181ea8059f76532841060076113f1565b826000670c7d713b49da0000831380156134be5750670f43fc2c04ee000083125b156134f55760006134ce84613553565b9050670de0b6b3a764000080820784020583670de0b6b3a764000083050201915050613503565b816134ff84613671565b0290505b670de0b6b3a7640000900561353b680238fd42c5cf03ffff198212801590613534575068070c1cc73b00c800008213155b60086113f1565b612d4d816125bb565b60006104008284038101613048565b670de0b6b3a7640000026000806a0c097ce7bc90715b34b9f160241b808401906ec097ce7bc90715b34b9f0fffffffff198501028161358e57fe5b05905060006a0c097ce7bc90715b34b9f160241b82800205905081806a0c097ce7bc90715b34b9f160241b81840205915060038205016a0c097ce7bc90715b34b9f160241b82840205915060058205016a0c097ce7bc90715b34b9f160241b82840205915060078205016a0c097ce7bc90715b34b9f160241b82840205915060098205016a0c097ce7bc90715b34b9f160241b828402059150600b8205016a0c097ce7bc90715b34b9f160241b828402059150600d8205016a0c097ce7bc90715b34b9f160241b828402059150600f826002919005919091010295945050505050565b6000670de0b6b3a76400008212156136ad576136a3826a0c097ce7bc90715b34b9f160241b8161369d57fe5b05613671565b6000039050610a56565b60007e1600ef3172e58d2e933ec884fde10064c63b5372d805e203c000000000000083126136fe57770195e54c5dd42177f53a27172fa9ec630262827000000000830592506806f05b59d3b2000000015b73011798004d755d3c8bc8e03204cf44619e0000008312613736576b1425982cf597cd205cef7380830592506803782dace9d9000000015b606492830292026e01855144814a7ff805980ff0084000831261377e576e01855144814a7ff805980ff008400068056bc75e2d63100000840205925068ad78ebc5ac62000000015b6b02df0ab5a80a22c61ab5a70083126137b9576b02df0ab5a80a22c61ab5a70068056bc75e2d6310000084020592506856bc75e2d631000000015b693f1fce3da636ea5cf85083126137f057693f1fce3da636ea5cf85068056bc75e2d631000008402059250682b5e3af16b18800000015b690127fa27722cc06cc5e2831261382757690127fa27722cc06cc5e268056bc75e2d6310000084020592506815af1d78b58c400000015b68280e60114edb805d03831261385c5768280e60114edb805d0368056bc75e2d631000008402059250680ad78ebc5ac6200000015b680ebc5fb41746121110831261388757680ebc5fb4174612111068056bc75e2d631000009384020592015b6808f00f760a4b2db55d83126138bc576808f00f760a4b2db55d68056bc75e2d6310000084020592506802b5e3af16b1880000015b6806f5f177578893793783126138f1576806f5f177578893793768056bc75e2d63100000840205925068015af1d78b58c40000015b6806248f33704b2866038312613925576806248f33704b28660368056bc75e2d63100000840205925067ad78ebc5ac620000015b6805c548670b9510e7ac8312613959576805c548670b9510e7ac68056bc75e2d6310000084020592506756bc75e2d6310000015b600068056bc75e2d63100000840168056bc75e2d63100000808603028161397c57fe5b059050600068056bc75e2d63100000828002059050818068056bc75e2d63100000818402059150600382050168056bc75e2d63100000828402059150600582050168056bc75e2d63100000828402059150600782050168056bc75e2d63100000828402059150600982050168056bc75e2d63100000828402059150600b820501600202606485820105979650505050505050565b600081831015613a20578161079e565b5090919050565b600080828060200190516060811015613a3f57600080fd5b5060208101516040909101519094909350915050565b600080613a6684612d3c8188611221565b9050613a7f6709b6e64a8ec600008210156101326113f1565b6000613a9d613a96670de0b6b3a764000089611b2f565b8390613417565b90506000613ab4613aad83611fa3565b8a90612f26565b90506000613ac189611fa3565b90506000613acf8383611f15565b90506000613add8483611221565b9050613afc613af5613aee8a611fa3565b8490612f26565b82906111f3565b9c9b505050505050505050505050565b6000818060200190516040811015613b2357600080fd5b506020015192915050565b60606000613b3c8484611b2f565b9050600085516001600160401b0381118015613b5757600080fd5b50604051908082528060200260200182016040528015613b81578160200160208202803683370190505b50905060005b8651811015613bd557613bb683888381518110613ba057fe5b6020026020010151612f2690919063ffffffff16565b828281518110613bc257fe5b6020908102919091010152600101613b87565b5095945050505050565b60606000828060200190516060811015613bf857600080fd5b815160208301805160405192949293830192919084640100000000821115613c1f57600080fd5b908301906020820185811115613c3457600080fd5b8251866020820283011164010000000082111715613c5157600080fd5b82525081516020918201928201910280838360005b83811015613c7e578181015183820152602001613c66565b50505050919091016040525060200151929792965091945050505050565b60008084516001600160401b0381118015613cb657600080fd5b50604051908082528060200260200182016040528015613ce0578160200160208202803683370190505b5090506000805b8851811015613da557613d40898281518110613cff57fe5b6020026020010151612d3c898481518110613d1657fe5b60200260200101518c8581518110613d2a57fe5b602002602001015161122190919063ffffffff16565b838281518110613d4c57fe5b602002602001018181525050613d9b613d94898381518110613d6a57fe5b6020026020010151858481518110613d7e57fe5b6020026020010151611f1590919063ffffffff16565b83906111f3565b9150600101613ce7565b50670de0b6b3a764000060005b8951811015613ea5576000848281518110613dc957fe5b6020026020010151841115613e27576000613df2613de686611fa3565b8d8581518110613ba057fe5b90506000613e06828c8681518110613d2a57fe5b9050613e1e613d94613e178b611fa3565b8390611fc9565b92505050613e3e565b888281518110613e3357fe5b602002602001015190505b6000613e678c8481518110613e4f57fe5b6020026020010151610985848f8781518110613d2a57fe5b9050613e99613e928c8581518110613e7b57fe5b602002602001015183612ed790919063ffffffff16565b8590612f26565b93505050600101613db2565b50613eb9613eb282611fa3565b8790611f15565b9998505050505050505050565b60008084516001600160401b0381118015613ee057600080fd5b50604051908082528060200260200182016040528015613f0a578160200160208202803683370190505b5090506000805b8851811015613fb257613f6a898281518110613f2957fe5b6020026020010151610985898481518110613f4057fe5b60200260200101518c8581518110613f5457fe5b60200260200101516111f390919063ffffffff16565b838281518110613f7657fe5b602002602001018181525050613fa8613d94898381518110613f9457fe5b6020026020010151858481518110613ba057fe5b9150600101613f11565b50670de0b6b3a764000060005b895181101561409357600083858381518110613fd757fe5b60200260200101511115614033576000613ffc613de686670de0b6b3a7640000611221565b90506000614010828c8681518110613d2a57fe5b905061402a613d9461217c670de0b6b3a76400008c611221565b9250505061404a565b88828151811061403f57fe5b602002602001015190505b60006140738c848151811061405b57fe5b6020026020010151610985848f8781518110613f5457fe5b9050614087613e928c8581518110613e7b57fe5b93505050600101613fbf565b50670de0b6b3a764000081106140c9576140bf6140b882670de0b6b3a7640000611221565b8790612f26565b9350505050611f6f565b60009350505050611f6f565b6000806140e684612d3c81886111f3565b90506140ff6729a2241af62c00008211156101336113f1565b6000614116613a96670de0b6b3a764000089611fc9565b9050600061413661412f83670de0b6b3a7640000611221565b8a90611f15565b9050600061414389611fa3565b905060006141518383611f15565b9050600061415f8483611221565b9050613afc613af56141708a611fa3565b8490611fc9565b600061418382826141d7565b61418e84601f6141db565b6141998660546141ec565b6141a488606a6141db565b6141af8a609f6141ec565b6141ba8c60b56141db565b6141c58e60ea6141ec565b17171717171798975050505050505050565b1b90565b661fffffffffffff91909116901b90565b623fffff91909116901b90565b6040805160608101909152806000815260200160008152602001600081525090565b604080518082019091526000808252602082015290565b8035610a5681614b66565b600082601f83011261424d578081fd5b8151602061426261425d83614b49565b614b26565b828152818101908583018385028701840188101561427e578586fd5b855b8581101561429c57815184529284019290840190600101614280565b5090979650505050505050565b600082601f8301126142b9578081fd5b81356001600160401b038111156142cc57fe5b6142df601f8201601f1916602001614b26565b8181528460208386010111156142f3578283fd5b816020850160208301379081016020019190915292915050565b803560028110610a5657600080fd5b803560038110610a5657600080fd5b60006020828403121561433c578081fd5b813561079e81614b66565b60008060408385031215614359578081fd5b823561436481614b66565b9150602083013561437481614b66565b809150509250929050565b600080600060608486031215614393578081fd5b833561439e81614b66565b925060208401356143ae81614b66565b929592945050506040919091013590565b600080600080600080600060e0888a0312156143d9578485fd5b87356143e481614b66565b965060208801356143f481614b66565b95506040880135945060608801359350608088013560ff81168114614417578384fd5b9699959850939692959460a0840135945060c09093013592915050565b60008060408385031215614446578182fd5b823561445181614b66565b946020939093013593505050565b600080600060608486031215614473578081fd5b83516001600160401b0380821115614489578283fd5b818601915086601f83011261449c578283fd5b815160206144ac61425d83614b49565b82815281810190858301838502870184018c10156144c8578788fd5b8796505b848710156144f35780516144df81614b66565b8352600196909601959183019183016144cc565b509189015191975090935050508082111561450c578283fd5b506145198682870161423d565b925050604084015190509250925092565b6000602080838503121561453c578182fd5b82356001600160401b0380821115614552578384fd5b818501915085601f830112614565578384fd5b813561457361425d82614b49565b818152848101908486016040808502870188018b1015614591578889fd5b8896505b848710156145e95780828c0312156145ab578889fd5b805181810181811088821117156145be57fe5b82526145c98361431c565b815282890135898201528452600196909601959287019290810190614595565b50909998505050505050505050565b6000602080838503121561460a578182fd5b82356001600160401b0380821115614620578384fd5b818501915085601f830112614633578384fd5b813561464161425d82614b49565b818152848101908486016060808502870188018b101561465f578889fd5b8896505b848710156145e95780828c031215614679578889fd5b60408051828101818110898211171561468e57fe5b82526146998461431c565b8152838a01358a82015281840135918101919091528452600196909601959287019290810190614663565b6000602082840312156146d5578081fd5b8135801515811461079e578182fd5b600080600080600080600060e0888a0312156146fe578081fd5b8735965060208089013561471181614b66565b9650604089013561472181614b66565b955060608901356001600160401b038082111561473c578384fd5b818b0191508b601f83011261474f578384fd5b813561475d61425d82614b49565b8082825285820191508585018f87888602880101111561477b578788fd5b8795505b8386101561479d57803583526001959095019491860191860161477f565b509850505060808b0135955060a08b0135945060c08b01359250808311156147c3578384fd5b50506147d18a828b016142a9565b91505092959891949750929550565b6000602082840312156147f1578081fd5b81356001600160e01b03198116811461079e578182fd5b600060208284031215614819578081fd5b815161079e81614b66565b600060208284031215614835578081fd5b61079e8261431c565b600080600060608486031215614852578081fd5b83356001600160401b0380821115614868578283fd5b818601915061012080838903121561487e578384fd5b61488781614b26565b90506148928361430d565b81526148a060208401614232565b60208201526148b160408401614232565b6040820152606083013560608201526080830135608082015260a083013560a08201526148e060c08401614232565b60c08201526148f160e08401614232565b60e08201526101008084013583811115614909578586fd5b6149158a8287016142a9565b9183019190915250976020870135975060409096013595945050505050565b600060208284031215614945578081fd5b5035919050565b6000815180845260208085019450808401835b8381101561497b5781518752958201959082019060010161495f565b509495945050505050565b6000828483379101908152919050565b6001600160a01b0391909116815260200190565b6020808252825182820181905260009190848201906040850190845b818110156149e2578351835292840192918401916001016149c6565b50909695505050505050565b60006020825261079e602083018461494c565b600060408252614a14604083018561494c565b8281036020840152611f6f818561494c565b901515815260200190565b92151583526020830191909152604082015260600190565b90815260200190565b968752602087019590955260408601939093526060850191909152608084015260a083015260c082015260e00190565b9586526020860194909452604085019290925260608401521515608083015260a082015260c00190565b6000602080835283518082850152825b81811015614ad857858101830151858201604001528201614abc565b81811115614ae95783604083870101525b50601f01601f1916929092016040019392505050565b6000838252604060208301526120b4604083018461494c565b60ff91909116815260200190565b6040518181016001600160401b0381118282101715614b4157fe5b604052919050565b60006001600160401b03821115614b5c57fe5b5060209081020190565b6001600160a01b03811681146105e857600080fdfea26469706673582212208cb4c0c0436ad4fae4f748682e4c6d28b17ae4329060d49a998feaa99d1a3c3364736f6c63430007060033",
    "linkReferences": {}
  },
  "methodIdentifiers": {
    "DOMAIN_SEPARATOR()": "3644e515",
    "allowance(address,address)": "dd62ed3e",
    "approve(address,uint256)": "095ea7b3",
    "balanceOf(address)": "70a08231",
    "decimals()": "313ce567",
    "decreaseApproval(address,uint256)": "66188463",
    "enableOracle()": "292c914a",
    "getActionId(bytes4)": "851c1bb3",
    "getAuthorizer()": "aaabadc5",
    "getInvariant()": "c0ff1a15",
    "getLargestSafeQueryWindow()": "ffd088eb",
    "getLastInvariant()": "9b02cdde",
    "getLatest(uint8)": "b10be739",
    "getMiscData()": "4a6b0b15",
    "getNormalizedWeights()": "f89f27ed",
    "getOwner()": "893d20e8",
    "getPastAccumulators((uint8,uint256)[])": "6b843239",
    "getPausedState()": "1c0de051",
    "getPoolId()": "38fff2d0",
    "getRate()": "679aefce",
    "getSample(uint256)": "60d1507c",
    "getSwapFeePercentage()": "55c67628",
    "getTimeWeightedAverage((uint8,uint256,uint256)[])": "1dccd830",
    "getTotalSamples()": "b48b5b40",
    "getVault()": "8d928af8",
    "increaseApproval(address,uint256)": "d73dd623",
    "name()": "06fdde03",
    "nonces(address)": "7ecebe00",
    "onExitPool(bytes32,address,address,uint256[],uint256,uint256,bytes)": "74f3b009",
    "onJoinPool(bytes32,address,address,uint256[],uint256,uint256,bytes)": "d5c096c4",
    "onSwap((uint8,address,address,uint256,bytes32,uint256,address,address,bytes),uint256,uint256)": "9d2c110c",
    "permit(address,address,uint256,uint256,uint8,bytes32,bytes32)": "d505accf",
    "queryExit(bytes32,address,address,uint256[],uint256,uint256,bytes)": "6028bfd4",
    "queryJoin(bytes32,address,address,uint256[],uint256,uint256,bytes)": "87ec6817",
    "setPaused(bool)": "16c38b3c",
    "setSwapFeePercentage(uint256)": "38e9922e",
    "symbol()": "95d89b41",
    "totalSupply()": "18160ddd",
    "transfer(address,uint256)": "a9059cbb",
    "transferFrom(address,address,uint256)": "23b872dd"
  },
  "id": 30
}